:100000000C9446000C9465000C9465000C946500FB
:100010000C9465000C9465000C9465000C946500CC
:100020000C9465000C9465000C9465000C946500BC
:100030000C9465000C94DE000C9465000C94650033
:100040000C9465000C9465000C9465000C9465009C
:100050000C9465000C9465000C9465000C9465008C
:100060000C9465000C9465000C9465000C9465007C
:100070000C9465000C9465000C9465000C9465006C
:100080000C9465000C9465000C94650011241FBE4F
:10009000CFEFD0E4DEBFCDBF11E0A0E0B1E0E4ECF3
:1000A000F5E000E00BBF02C007900D92A231B1074E
:1000B000D9F721E0A2E1B1E001C01D92AC31B20755
:1000C000E1F70E949B020C94E0020C940000CF9395
:1000D000DF9300D01F92CDB7DEB789837B836A831D
:1000E00089818A3031F48A819B81BC018DE00E9434
:1000F000670080EC90E0FC018081882F90E08072A6
:100100009927892BB1F386EC90E02981FC012083AB
:1001100080E090E00F900F900F90DF91CF910895C5
:10012000CF93DF93CDB7DEB781E890E02BE0FC0101
:10013000208388E890E02DE730E0FC0131832083C4
:100140008FE690E022E0FC01208384E890E0FC014F
:100150001182108280910E0190910F01A0911001E7
:10016000B09111018093130190931401A093150194
:10017000B09316018FE590E02FE530E0F901208182
:100180002068FC0120830000DF91CF910895CF9378
:10019000DF93CDB7DEB781E890E0FC01108200006C
:1001A000DF91CF910895CF93DF93CDB7DEB781E094
:1001B000809312010000DF91CF9108951F920F925A
:1001C00000905F000F92112400905B000F922F931C
:1001D0003F934F935F936F937F938F939F93AF93CF
:1001E000BF93EF93FF93CF93DF93CDB7DEB78091AB
:1001F000130190911401A0911501B091160101977E
:10020000A109B1098093130190931401A0931501E2
:10021000B09316018091130190911401A0911501E2
:10022000B0911601892B8A2B8B2B91F40E94D3005D
:1002300080910E0190910F01A0911001B0911101D8
:100240008093130190931401A0931501B0931601AC
:100250000000DF91CF91FF91EF91BF91AF919F91FE
:100260008F917F916F915F914F913F912F910F905F
:1002700000925B000F9000925F000F901F90189506
:10028000CF93DF9300D000D0CDB7DEB769837A83F8
:100290008B839C8389819A81AB81BC8180930E0181
:1002A00090930F01A0931001B093110180910E0162
:1002B00090910F01A0911001B09111018093130151
:1002C00090931401A0931501B093160100000F90B4
:1002D0000F900F900F90DF91CF910895CF93DF9300
:1002E000CDB7DEB780911A0190911B018230910544
:1002F00009F451C08330910528F40097C9F00197A3
:1003000069F0B9C08430910509F48FC0843091053B
:1003100008F49DC0059709F491C0ADC085E290E056
:1003200027E0FC01208310921B0110921A01AAC041
:1003300080911701882359F080911801882339F49E
:1003400084E090E090931B0180931A0123C0809178
:100350001701882359F480911801882339F085E02A
:1003600090E090931B0180931A0114C080911701B3
:10037000882359F080911801882339F083E090E0B8
:1003800090931B0180931A0105C010921B011092DB
:100390001A0178C077C080911701882321F08091DD
:1003A00019018A3040F080911801882359F080911A
:1003B00019018A3038F482E090E090931B01809319
:1003C0001A0132C080911701882359F080911901D8
:1003D0008A3038F084E090E090931B0180931A01FA
:1003E00023C080911801882359F0809119018A3027
:1003F00038F085E090E090931B0180931A0114C0BF
:1004000080911701882359F080911801882339F0D1
:1004100083E090E090931B0180931A0105C0109235
:100420001B0110921A012EC02DC01092190182E0FA
:1004300090E090931B0180931A0124C0109219013F
:1004400082E090E090931B0180931A011BC0809181
:100450001701882359F080911801882339F083E02F
:1004600090E090931B0180931A010CC010921B0125
:1004700010921A0107C081E090E090931B018093D5
:100480001A01000080911A0190911B0182309105A0
:10049000C1F08330910530F4009709F443C001970F
:1004A00051F03AC08430910591F08430910578F193
:1004B0000597E9F031C085E290E027E0FC01208358
:1004C00036C0809119018F5F8093190130C085E299
:1004D00090E0FC018081893038F585E290E025E2EA
:1004E00030E0F90120812F5FFC0120831DC085E2EF
:1004F00090E0FC0180818823C9F085E290E025E24C
:1005000030E0F90120812150FC0120830FC085E2F9
:1005100090E0FC0110820BC085E290E027E0FC0136
:10052000208305C0000003C0000001C000000000DF
:10053000DF91CF910895CF93DF93CDB7DEB781E2FE
:1005400090E0FC01108282E290E02FEFFC0120831A
:1005500084E290E02FEFFC01208385E290E0FC0133
:10056000108264E670E080E090E00E9440010E940A
:10057000900081E090E090931B0180931A0180E24B
:1005800090E0FC018081882F90E08170992721E024
:10059000892B09F020E0822F8093170180E290E000
:1005A000FC01808180958270809318010E946E0109
:1005B0000000809112018823E1F310921201DFCF35
:0405C000F894FFCFDD
:1005C40000000002000000006700000000000100BD
:0205D400000025
:00000001FF
