:100000000C9462000C9481000C9481000C9481008B
:100010000C9481000C9481000C9481000C9481005C
:100020000C9481000C9481000C9481000C9481004C
:100030000C9481000C94FA000C9481000C948100C3
:100040000C9481000C9481000C9481000C9481002C
:100050000C9481000C9481000C9481000C9481001C
:100060000C9481000C9481000C9481000C9481000C
:100070000C9481000C9481000C9481000C948100FC
:100080000C9481000C9481000C948100EF04F40422
:10009000F904200525054C0551050C060C069005B4
:1000A000C4050C06E8050C0665066A066F0696068A
:1000B0009B06C206C7065408540806073A075408A8
:1000C000B707540811241FBECFEFD0E4DEBFCDBF69
:1000D00011E0A0E0B1E0E4E7F7E100E00BBF02C00F
:1000E00007900D92A032B107D9F721E0A0E2B1E06C
:1000F00001C01D92A134B207E1F70E948C080C9454
:10010000B80B0C940000CF93DF9300D01F92CDB7B3
:10011000DEB789837B836A8389818A3031F48A815F
:100120009B81BC018DE00E94830080EC90E0FC018B
:100130008081882F90E080729927892BB1F386EC1B
:1001400090E02981FC01208380E090E00F900F90E7
:100150000F90DF91CF910895CF93DF93CDB7DEB7A6
:1001600081E890E02BE0FC01208388E890E02DE717
:1001700030E0FC01318320838FE690E022E0FC0137
:10018000208384E890E0FC011182108280910E01AE
:1001900090910F01A0911001B09111018093210164
:1001A00090932201A0932301B09324018FE590E066
:1001B0002FE530E0F90120812068FC012083000058
:1001C000DF91CF910895CF93DF93CDB7DEB781E86C
:1001D00090E0FC0110820000DF91CF910895CF9351
:1001E000DF93CDB7DEB781E0809320010000DF917F
:1001F000CF9108951F920F9200905F000F921124EB
:1002000000905B000F922F933F934F935F936F93F8
:100210007F938F939F93AF93BF93EF93FF93CF936E
:10022000DF93CDB7DEB78091210190912201A0919B
:100230002301B09124010197A109B1098093210103
:1002400090932201A0932301B09324018091210176
:1002500090912201A0912301B0912401892B8A2B36
:100260008B2B91F40E94EF0080910E0190910F0171
:10027000A0911001B091110180932101909322016E
:10028000A0932301B09324010000DF91CF91FF914F
:10029000EF91BF91AF919F918F917F916F915F91FE
:1002A0004F913F912F910F9000925B000F90009221
:1002B0005F000F901F901895CF93DF9300D000D070
:1002C000CDB7DEB769837A838B839C8389819A81DA
:1002D000AB81BC8180930E0190930F01A09310011C
:1002E000B093110180910E0190910F01A091100126
:1002F000B09111018093210190932201A0932301D9
:10030000B093240100000F900F900F900F90DF9199
:10031000CF910895CF93DF9300D01F92CDB7DEB772
:1003200089836A834B838B81882371F08A81282F8C
:1003300030E081E090E002C0880F991F2A95E2F733
:10034000982F8981892B0EC08A81282F30E081E087
:1003500090E002C0880F991F2A95E2F7982F909598
:10036000898189230F900F900F90DF91CF9108958D
:10037000CF93DF9300D0CDB7DEB789836A838A81BC
:10038000282F30E081E090E002C0880F991F2A9565
:10039000E2F7982F898189230F900F90DF91CF91F9
:1003A00008950F931F93CF93DF93CDB7DEB708E285
:1003B00010E040E064E08FEF0E948A01F801808342
:1003C000000086E290E0FC018081809560E00E9460
:1003D000B801882311F081E3D3C086E290E0FC01EC
:1003E0008081809561E00E94B801882311F084E348
:1003F000C7C086E290E0FC018081809562E00E94A7
:10040000B801882311F087E3BBC086E290E0FC01CD
:100410008081809563E00E94B801882311F08AE210
:10042000AFC008E210E040E065E08FEF0E948A0173
:10043000F8018083000086E290E0FC0180818095D5
:1004400060E00E94B801882311F082E399C086E23F
:1004500090E0FC018081809561E00E94B8018823D2
:1004600011F085E38DC086E290E0FC0180818095EB
:1004700062E00E94B801882311F088E381C086E21F
:1004800090E0FC018081809563E00E94B8018823A0
:1004900011F080E375C008E210E040E066E08FEF05
:1004A0000E948A01F8018083000086E290E0FC014E
:1004B0008081809560E00E94B801882311F083E379
:1004C0005FC086E290E0FC018081809561E00E943F
:1004D000B801882311F086E353C086E290E0FC0166
:1004E0008081809562E00E94B801882311F089E341
:1004F00047C086E290E0FC018081809563E00E9425
:10050000B801882311F083E23BC008E210E040E02C
:1005100067E08FEF0E948A01F8018083000086E285
:1005200090E0FC018081809560E00E94B801882302
:1005300011F081E425C086E290E0FC018081809585
:1005400061E00E94B801882311F082E419C086E2BC
:1005500090E0FC018081809562E00E94B8018823D0
:1005600011F083E40DC086E290E0FC01808180956B
:1005700063E00E94B801882311F084E401C080E0A8
:10058000DF91CF911F910F9108950F931F93CF93F8
:10059000DF9300D000D0CDB7DEB769837A838B8339
:1005A0009C838091270190912801A0912901B0910D
:1005B0002A019C01AD0169817A818B819C810E9415
:1005C000240A882309F477C020E030E0A90169817A
:1005D0007A818B819C810E94240A882351F481E9CD
:1005E00090E021E930E0F90120812870FC012083AE
:1005F00009C081E990E021E930E0F9012081236020
:10060000FC01208328E539E344E75FE369817A81CF
:100610008B819C810E94240A882344F488E990E01D
:100620002FEF3FEFFC013183208334C020E034E220
:1006300044EF56E469817A818B819C810E94460B4C
:10064000181634F488E990E0FC011182108222C06F
:1006500008E910E020E030E040E053E469817A816D
:100660008B819C810E944B0BDC01CB019C01AD0175
:1006700060E074E284EF9AE40E94290ADC01CB0175
:10068000BC01CD010E949B0ADC01CB010197F8015E
:100690009183808384E990E0FC011182108289813A
:1006A0009A81AB81BC818093270190932801A0930C
:1006B0002901B0932A0100000F900F900F900F9026
:1006C000DF91CF911F910F910895CF93DF93CDB715
:1006D000DEB780E990E020E4FC01208381E990E02E
:1006E0002BE0FC01208360E070E0CB010E94C5029A
:1006F0000000DF91CF910895CF93DF93CDB7DEB7A0
:1007000080E990E0FC01108281E990E0FC01108218
:100710000000DF91CF910895CF93DF93CDB7DEB77F
:100720002C970FB6F894DEBF0FBECDBF6D837E83CE
:100730008F83988729873A874B875C878D819E8135
:10074000AF81B88529853A854B855C85BC01CD0193
:100750000E94F909DC01CB0189839A83AB83BC83B6
:1007600089819A81AB81BC81892B8A2B8B2B29F4BF
:1007700089859A85AB85BC8511C089859A85AB85AD
:10078000BC858D839E83AF83B88789819A81AB8135
:10079000BC8189879A87AB87BC87D0CFBC01CD014C
:1007A0002C960FB6F894DEBF0FBECDBFDF91CF9170
:1007B0000895CF93DF9300D000D0CDB7DEB79C83F0
:1007C0008B831A82198225C085E290E028E0FC0123
:1007D000208385E290E025E230E0F90140812B8121
:1007E0003C81098002C0369527950A94E2F7217072
:1007F000242BFC01208385E290E025E230E0F90122
:1008000020812260FC01208389819A8101969A834C
:10081000898389819A814097BCF285E290E025E244
:1008200030E0F90120812460FC01208385E290E022
:10083000FC01108200000F900F900F900F90DF913D
:10084000CF910895CF93DF9300D0CDB7DEB79A83D1
:10085000898389819A81892B19F01A82198201C0B2
:10086000000089819A81892B09F06CC080E290E0B8
:10087000FC018081882F90E0809590958F7099275A
:10088000019761F59091150180911901981761F414
:1008900080911A018F3741F48091160180931901DC
:1008A0008FEB80931A014DC0909116018091190130
:1008B000981761F480911A018F3B41F480911701E0
:1008C000809319018FED80931A013BC0809115012F
:1008D000809319018FE780931A0133C0909115011D
:1008E00080911901981779F49091120180911A0161
:1008F000981749F480911601809319018091130192
:1009000080931A011EC090911601809119019817C9
:1009100079F49091130180911A01981749F480910C
:100920001701809319018091140180931A0109C065
:1009300080911501809319018091120180931A0111
:1009400000C000001092260110922501809119012B
:10095000282F30E08091250190912601822B932B46
:10096000982F8827909326018093250180911A0162
:10097000282F30E08091250190912601822B932B26
:100980009093260180932501809125019091260165
:100990000E94D90389819A810F900F90DF91CF91A6
:1009A0000895CF93DF9300D000D000D0CDB7DEB74D
:1009B0009E838D838D819E81092E000CAA0BBB0B1B
:1009C00040E050E026E030E0841B950B2817390703
:1009D00008F48EC08A5B9F4FFC010C941B0A81E0D7
:1009E00090E09E838D8387C082E090E09E838D831C
:1009F00082C080E290E0FC018081882F90E08095A9
:100A000090958F709927019729F483E090E09E8359
:100A10008D8371C080E290E0FC018081882F90E09E
:100A2000809590958F709927029729F485E090E042
:100A30009E838D8360C082E090E09E838D835BC047
:100A400084E090E09E838D8356C080E290E0FC01BC
:100A50008081882F90E0809590958F7099270197DD
:100A600029F484E090E09E838D8345C080E290E08D
:100A7000FC018081882F90E0809590958F70992758
:100A8000029729F485E090E09E838D8334C082E054
:100A900090E09E838D832FC086E090E09E838D83BF
:100AA0002AC080E290E0FC018081882F90E0809550
:100AB00090958F709927029729F486E090E09E83A5
:100AC0008D8319C080E290E0FC018081882F90E046
:100AD000809590958F709927019729F483E090E095
:100AE0009E838D8308C082E090E09E838D8303C047
:100AF0001E821D8200008D819E81092E000CAA0B92
:100B0000BB0B40E050E026E030E0841B950B28173B
:100B1000390708F47DC0835B9F4FFC010C941B0ACE
:100B20009091150180911B01981779F49091120111
:100B300080911C01981749F48091160180931B0144
:100B40008091130180931C011EC090911601809129
:100B50001B01981779F49091130180911C0198174B
:100B600049F48091170180931B01809114018093B7
:100B70001C0109C08091150180931B018091120115
:100B800080931C014EC04DC08091120188230CF04F
:100B900045C01A82198217C089819A818E5E9E4F44
:100BA000FC018081882F90E0880F991F8160282F99
:100BB00089819A818E5E9E4FFC01208389819A8172
:100BC00001969A83898389819A8103972CF326C0A1
:100BD000809112018F3D20F51C821B8214C08B81F5
:100BE0009C818E5E9E4FFC0180818695282F206817
:100BF0008B819C818E5E9E4FFC0120838B819C812A
:100C000001969C838B838B819C81039744F308C05E
:100C10008FE780931C0105C0000003C0000001C0E5
:100C20000000109226011092250180911B01282FAF
:100C300030E08091250190912601822B932B982FF3
:100C40008827909326018093250180911C01282FED
:100C500030E08091250190912601822B932B909377
:100C600026018093250180912501909126010E9403
:100C7000D9038D819E8126960FB6F894DEBF0FBEF4
:100C8000CDBFDF91CF910895CF93DF93CDB7DEB77E
:100C900064970FB6F894DEBF0FBECDBF9C8B8B8BD5
:100CA0008B899C89092E000CAA0BBB0B40E050E0FD
:100CB00026E030E0841B950B2817390708F48EC016
:100CC0008C5A9F4FFC010C941B0A81E090E09C8B96
:100CD0008B8B87C082E090E09C8B8B8B82C080E204
:100CE00090E0FC018081882F90E0809590958F7036
:100CF0009927049729F483E090E09C8B8B8B71C03B
:100D000080E290E0FC018081882F90E080959095B2
:100D10008F709927089729F485E090E09C8B8B8B46
:100D200060C082E090E09C8B8B8B5BC083E090E0A6
:100D30009C8B8B8B56C080E290E0FC018081882FD9
:100D400090E0809590958F709927049729F484E01E
:100D500090E09C8B8B8B45C080E290E0FC01808111
:100D6000882F90E0809590958F709927089729F4A7
:100D700085E090E09C8B8B8B34C082E090E09C8B74
:100D80008B8B2FC086E090E09C8B8B8B2AC080E2FF
:100D900090E0FC018081882F90E0809590958F7085
:100DA0009927089729F486E090E09C8B8B8B19C0DB
:100DB00080E290E0FC018081882F90E08095909502
:100DC0008F709927049729F483E090E09C8B8B8B9C
:100DD00008C082E090E09C8B8B8B03C01C8A1B8A2E
:100DE00000008B899C89092E000CAA0BBB0B40E0EC
:100DF00050E026E030E0841B950B2817390708F4F3
:100E000051C1855A9F4FFC010C941B0A909115010A
:100E100080911D01981779F49091120180911E0123
:100E2000981749F48091160180931D018091130158
:100E300080931E011EC09091160180911D0198178C
:100E400079F49091130180911E01981749F48091D3
:100E5000170180931D018091140180931E0109C028
:100E60008091150180931D018091120180931E01D4
:100E700020C11FC180911501803FD9F41A821982C7
:100E800013C089819A818B5E9E4FFC018081282F3F
:100E9000269589819A818B5E9E4FFC0120838981F2
:100EA0009A8101969A83898389819A8103974CF369
:100EB000FDC0809115018837D9F41C821B8213C0B4
:100EC0008B819C818B5E9E4FFC018081282F269513
:100ED0008B819C818B5E9E4FFC0120838B819C814A
:100EE00001969C838B838B819C8103974CF3DEC09E
:100EF000809115018C33D9F41E821D8213C08D811F
:100F00009E818B5E9E4FFC018081282F26958D81CE
:100F10009E818B5E9E4FFC0120838D819E81019678
:100F20009E838D838D819E8103974CF3BFC08091FA
:100F300015018E3109F0BAC018861F8213C08F8147
:100F400098858B5E9E4FFC018081282F26958F818E
:100F500098858B5E9E4FFC0120838F81988501963A
:100F600098878F838F81988503974CF39FC08091DA
:100F700015018F30D9F41A86198613C089859A8590
:100F80008B5E9E4FFC018081282F220F89859A85D8
:100F90008B5E9E4FFC01208389859A8501969A87F6
:100FA000898789859A8503974CF382C080911501C2
:100FB0008E31D9F41C861B8613C08B859C858B5E75
:100FC0009E4FFC018081282F220F8B859C858B5E94
:100FD0009E4FFC0120838B859C8501969C878B8787
:100FE0008B859C8503974CF363C0809115018C33EE
:100FF000D9F41E861D8613C08D859E858B5E9E4FFF
:10100000FC018081282F220F8D859E858B5E9E4F4F
:10101000FC0120838D859E8501969E878D878D8519
:101020009E8503974CF344C0809115018837D9F40D
:10103000188A1F8613C08F8598898B5E9E4FFC018E
:101040008081282F220F8F8598898B5E9E4FFC010F
:1010500020838F8598890196988B8F878F859889B3
:1010600003974CF325C0809115018E3109F51A8A3A
:10107000198A13C089899A898B5E9E4FFC018081F1
:10108000282F220F89899A898B5E9E4FFC0120832D
:1010900089899A8901969A8B898B89899A8903977C
:1010A0004CF306C0000005C0000003C0000001C0F2
:1010B0000000109226011092250180911D01282F19
:1010C00030E08091250190912601822B932B982F5F
:1010D0008827909326018093250180911E01282F57
:1010E00030E08091250190912601822B932B9093E3
:1010F00026018093250180912501909126010E946F
:10110000D9038B899C8964960FB6F894DEBF0FBE15
:10111000CDBFDF91CF9108950F931F93CF93DF93AE
:10112000CDB7DEB72D970FB6F894DEBF0FBECDBF9B
:101130008AE290E02FEFFC0120838BE290E0FC013B
:10114000108281E290E0FC01108282E290E02FEFB9
:10115000FC01208387E290E02FEFFC01208388E2EE
:1011600090E0FC01108284E290E02FEFFC012083EC
:1011700085E290E0FC0110828BE291E09B878A87F8
:1011800086E391E09D878C8782E090E098878F834B
:101190008A859B85FC0181819281A381B4818983A9
:1011A0009A83AB83BC831986898580932B0181E068
:1011B00090E0A0E0B0E080932C0190932D01A093EB
:1011C0002E01B0932F0180912C0190912D01A091BF
:1011D0002E01B0912F018093300190933101A093A3
:1011E0003201B093330184E496E09093350180930B
:1011F000340189858093360181E090E0A0E0B0E081
:101200008093370190933801A0933901B0933A014C
:1012100080912C0190912D01A0912E01B0912F0170
:1012200080933B0190933C01A0933D01B0933E011C
:1012300081ED94E09093400180933F0164E670E07B
:1012400080E090E00E945C010E94AC001E821D8242
:10125000C0C08D819E81880F991F9E012F5F3F4FD7
:10126000820F931F0996FC0180819181FC012581E9
:101270003681478150858D819E81880F991FBE01DF
:101280006F5F7F4F860F971F0996FC0180819181C8
:10129000FC0181819281A381B481281739074A0713
:1012A0005B0709F045C08D819E81880F991F9E01C3
:1012B0002F5F3F4F820F931F0996FC010081118120
:1012C0008D819E81880F991F9E012F5F3F4F820F56
:1012D000931F0996FC0180819181FC012185328553
:1012E0008D819E81880F991FAE014F5F5F4F840FE4
:1012F000951F0996FC0180819181FC018081082E57
:10130000000C990BF9010995F80180838D819E816C
:10131000880F991F9E012F5F3F4F820F931F0996E1
:10132000FC0180819181FC01158216821782108652
:101330008D819E81880F991F9E012F5F3F4F820FE5
:10134000931F0996FC0180819181FC0121813281EA
:101350004381548189819A81AB81BC81BC01CD01DB
:101360000E948C03DC01CB0189839A83AB83BC830D
:101370008D819E81880F991F9E012F5F3F4F820FA5
:10138000931F0996FC01608171818D819E81880F78
:10139000991F9E012F5F3F4F820F931F0996FC01FB
:1013A00080819181FC012581368147815085898129
:1013B0009A81AB81BC81820F931FA41FB51FFB01D3
:1013C00085839683A783B0878D819E8101969E83B6
:1013D0008D832D813E818F8198852817390708F4E8
:1013E00038CF0000809120018823E1F31092200182
:1013F0002DCFA1E21A2EAA1BBB1BFD010DC0AA1FF7
:10140000BB1FEE1FFF1FA217B307E407F50720F06D
:10141000A21BB30BE40BF50B661F771F881F991FE8
:101420001A9469F760957095809590959B01AC0131
:10143000BD01CF010895EE0FFF1F0024001C0BBE5D
:101440000790F691E02D09940E94D10A08F481E0FA
:1014500008950E943D0A0C940C0B0E94050B58F055
:101460000E94FE0A40F029F45F3F29F00C94F50A2F
:1014700051110C94400B0C94FB0A0E941D0B68F355
:101480009923B1F3552391F3951B550BBB27AA273D
:1014900062177307840738F09F5F5F4F220F331F77
:1014A000441FAA1FA9F335D00E2E3AF0E0E832D03F
:1014B00091505040E695001CCAF72BD0FE2F29D042
:1014C000660F771F881FBB1F261737074807AB0714
:1014D000B0E809F0BB0B802DBF01FF2793585F4F89
:1014E0003AF09E3F510578F00C94F50A0C94400BAD
:1014F0005F3FE4F3983ED4F3869577956795B7956B
:10150000F7959F5FC9F7880F911D9695879597F975
:101510000895E1E0660F771F881FBB1F62177307EE
:101520008407BA0720F0621B730B840BBA0BEE1F03
:1015300088F7E09508950E94A20A6894B1110C946E
:10154000400B08950E94250B88F09F5798F0B92F03
:101550009927B751B0F0E1F0660F771F881F991FE8
:101560001AF0BA95C9F714C0B13091F00E943F0B40
:10157000B1E008950C943F0B672F782F8827B85F50
:1015800039F0B93FCCF3869577956795B395D9F740
:101590003EF490958095709561957F4F8F4F9F4F4A
:1015A0000895990F0008550FAA0BE0E8FEEF1616F4
:1015B0001706E807F907C0F012161306E407F50747
:1015C00098F0621B730B840B950B39F40A2661F0BB
:1015D000232B242B252B21F408950A2609F4A1405E
:1015E000A6958FEF811D811D089597F99F6780E86B
:1015F00070E060E008959FEF80EC089500240A9465
:101600001616170618060906089500240A941216DD
:101610001306140605060895092E0394000C11F410
:10162000882352F0BB0F40F4BF2B11F460FF04C0BD
:101630006F5F7F4F8F4F9F4F089557FD9058440F16
:10164000551F59F05F3F71F04795880F97FB991F21
:1016500061F09F3F79F087950895121613061406DE
:10166000551FF2CF4695F1DF08C01616170618066B
:10167000991FF1CF86957105610508940895E89446
:10168000BB2766277727CB0197F908950E94D10AD7
:1016900008F48FEF08950E945E0B0C940C0B0E94CF
:1016A000FE0A38F00E94050B20F0952311F00C94EF
:1016B000F50A0C94FB0A11240C94400B0E941D0B9C
:1016C00070F3959FC1F3950F50E0551F629FF00195
:1016D000729FBB27F00DB11D639FAA27F00DB11DAE
:1016E000AA1F649F6627B00DA11D661F829F222737
:1016F000B00DA11D621F739FB00DA11D621F839FBE
:10170000A00D611D221F749F3327A00D611D231F93
:10171000849F600D211D822F762F6A2F11249F57E1
:1017200050409AF0F1F088234AF0EE0FFF1FBB1FE4
:10173000661F771F881F91505040A9F79E3F5105A3
:1017400080F00C94F50A0C94400B5F3FE4F3983E54
:10175000D4F3869577956795B795F795E7959F5F4D
:10176000C1F7FE2B880F911D9695879597F90895DF
:04177000F894FFCF1B
:1017740000000002000000008300000000000100DF
:101784000000BFDFEF3C243C023CBF3CBF3CBF0039
:00000001FF
