:100000000C9446000C945D000C945D000C945D0013
:100010000C945D000C945D000C945D000C945D00EC
:100020000C945D000C945D000C945D000C945D00DC
:100030000C945D000C945D000C945D000C945D00CC
:100040000C945D000C945D000C945D000C945D00BC
:100050000C945D000C945D000C945D000C945D00AC
:100060000C945D000C945D000C945D000C945D009C
:100070000C945D000C945D000C945D000C945D008C
:100080000C945D000C945D000C945D0011241FBE67
:10009000CFEFD0E4DEBFCDBF11E0A0E0B1E0E8E8F3
:1000A000F1E000E00BBF02C007900D92AE30B10747
:1000B000D9F70E9488000C94C2000C940000CF93E2
:1000C000DF9300D01F92CDB7DEB789837B836A832D
:1000D00089818A3031F48A819B81BC018DE00E9444
:1000E0005F0080EC90E0FC018081882F90E08072BE
:1000F0009927892BB1F386EC90E02981FC012083BC
:1001000080E090E00F900F900F90DF91CF910895D5
:10011000CF93DF931F92CDB7DEB781E290E0FC0171
:10012000108282E290E0FC01108284E290E02FEFE6
:10013000FC01208385E290E0FC01108287E290E0E0
:100140002FEFFC01208388E290E0FC0110821982ED
:1001500080E290E0FC018081898388E290E029813F
:10016000222F30E022953295307F3227207F3227B0
:10017000FC01208385E290E0298122952F70FC010B
:080180002083E6CFF894FFCFC5
:0E01880000000002000000005F000000000008
:00000001FF
