:100000000C9458000C9477000C9477000C947700B3
:100010000C9477000C9477000C9477000C94770084
:100020000C9477000C9477000C9477000C94770074
:100030000C9477000C9477000C9477000C94770064
:100040000C9477000C9477000C9477000C94770054
:100050000C9477000C9477000C9477000C94770044
:100060000C9477000C9477000C9477000C94770034
:100070000C9477000C9477000C9477000C94770024
:100080000C9477000C9477000C947700BC00C300AC
:10009000CA00FC0014011B013A0133015201740132
:1000A0007901C501C501A801C501C5017E01930102
:1000B00011241FBECFEFD0E4DEBFCDBF11E0A0E022
:1000C000B1E0ECEDF3E000E00BBF02C007900D9251
:1000D000AE31B107D9F721E0AEE1B1E001C01D9228
:1000E000A232B207E1F70E94CA010C94EC010C9411
:1000F0000000CF93DF9300D01F92CDB7DEB7898386
:100100007B836A8389818A3031F48A819B81BC0137
:100110008DE00E94790080EC90E0FC018081882FC6
:1001200090E080729927892BB1F386EC90E02981C9
:10013000FC01208380E090E00F900F900F90DF9102
:10014000CF910895CF93DF93CDB7DEB78091200193
:1001500090912101CC01A0E0B0E040E050E028E027
:1001600030E0841B950B2817390708F4A2C08A5B7E
:100170009F4FFC010C94E30181E090E090932101FA
:10018000809320019BC082E090E0909321018093B6
:10019000200194C080911E01883038F084E090E006
:1001A000909321018093200189C080E290E0FC01BE
:1001B0008081882F90E081709927892BB1F48091FC
:1001C0001F01882F90E081709927892B39F088E0F2
:1001D00090E0909321018093200170C087E090E02F
:1001E000909321018093200169C082E090E0909378
:1001F00021018093200162C080E290E0FC018081B7
:10020000882F90E081709927892B39F483E090E062
:10021000909321018093200151C081E090E0909360
:100220002101809320014AC083E090E09093210156
:100230008093200143C080E290E0FC018081882F00
:1002400090E081709927892B39F485E090E09093B4
:1002500021018093200132C082E090E0909321013F
:10026000809320012BC085E090E090932101809342
:10027000200124C080E290E0FC018081882F90E082
:1002800081709927892B39F486E090E090932101C1
:100290008093200113C082E090E09093210180932D
:1002A00020010CC086E090E0909321018093200112
:1002B00005C01092210110922001000080912001C0
:1002C00090912101CC01A0E0B0E040E050E028E0B6
:1002D00030E0841B950B2817390708F451C0815B67
:1002E0009F4FFC010C94E30185E290E0FC01108239
:1002F0004DC085E290E0FC01108248C085E290E0AC
:1003000020911E01222F30E0220F331F225F3E4F2B
:10031000F90120813181FC01208380911E018F5FD2
:1003200080931E0133C085E290E020911E01222FB0
:1003300030E0220F331F225F3E4FF90120813181CF
:10034000FC01208380911E01815080931E011EC0FC
:1003500085E290E0FC01108280911F01882F90E0DF
:1003600081709927892B29F010921F0110921E018C
:100370000DC081E080931F0186E080931E0106C0BE
:1003800085E290E0FC01108201C000000000DF91D6
:10039000CF910895CF93DF93CDB7DEB781E290E0A0
:1003A000FC01108282E290E02FEFFC01208384E2C6
:1003B00090E02FEFFC01208385E290E0FC011082A9
:1003C0000E94A200FDCFEE0FFF1F0024001C0BBEF9
:0C03D0000790F691E02D0994F894FFCFFF
:1003DC000000000200000000790000000000000096
:0E03EC000100030007000F001F003F0000008B
:00000001FF
