:100000000C9456000C9475000C9475000C947500BB
:100010000C9475000C9475000C9475000C9475008C
:100020000C9475000C9475000C9475000C9475007C
:100030000C9475000C9475000C9475000C9475006C
:100040000C9475000C9475000C9475000C9475005C
:100050000C9475000C9475000C9475000C9475004C
:100060000C9475000C9475000C9475000C9475003C
:100070000C9475000C9475000C9475000C9475002C
:100080000C9475000C9475000C94750003010A0122
:100090001101DF015101580198019F0113021B0258
:1000A0004E023F0223024E0231024E0211241FBEB5
:1000B000CFEFD0E4DEBFCDBF11E0A0E0B1E0EEEFC6
:1000C000F4E000E00BBF02C007900D92AE30B10724
:1000D000D9F721E0AEE0B1E001C01D92A131B20735
:1000E000E1F70E9457020C947D020C940000CF931C
:1000F000DF9300D01F92CDB7DEB789837B836A83FD
:1001000089818A3031F48A819B81BC018DE00E9413
:10011000770080EC90E0FC018081882F90E0807275
:100120009927892BB1F386EC90E02981FC0120838B
:1001300080E090E00F900F900F90DF91CF910895A5
:10014000CF93DF9300D01F92CDB7DEB78B831A8297
:10015000198227C088E290E028E0FC01208388E231
:1001600090E028E230E0F9012081422F2B81222FFC
:1001700030E0098002C0359527950A94E2F7217096
:10018000242BFC01208388E290E028E230E0F90192
:1001900020812260FC01208389819A8101969A83C3
:1001A000898389819A810897ACF288E290E028E2FD
:1001B00030E0F90120812460FC01208388E290E096
:1001C000FC01108200000F900F900F90DF91CF91F3
:1001D0000895CF93DF93CDB7DEB780910F01909153
:1001E0001001CC01A0E0B0E040E050E027E030E0BA
:1001F000841B950B2817390708F4FBC08A5B9F4FB7
:10020000FC010C94740281E090E0909310018093C3
:100210000F01F4C082E090E09093100180930F01F1
:10022000EDC080E290E0FC018081882F90E0809515
:10023000909583709927019739F484E090E090932A
:10024000100180930F01DAC080E290E0FC01808110
:10025000882F90E08095909583709927029739F4C4
:1002600086E090E09093100180930F01C7C080E278
:1002700090E0FC018081882F90E0809590958370BC
:100280009927039739F483E090E0909310018093CD
:100290000F01B4C082E090E09093100180930F01B1
:1002A000ADC085E090E09093100180930F01A6C04F
:1002B00080E290E0FC018081882F90E0809590950D
:1002C00083709927019739F485E090E090931001AD
:1002D00080930F0193C080E290E0FC018081882F21
:1002E00090E08095909583709927039739F483E087
:1002F00090E09093100180930F0180C080E290E025
:10030000FC018081882F90E08095909583709927DB
:10031000029739F486E090E09093100180930F01EA
:100320006DC082E090E09093100180930F0166C051
:1003300087E090E09093100180930F015FC080E20E
:1003400090E0FC018081882F90E0809590958370EB
:100350009927029739F487E090E0909310018093F9
:100360000F014CC080E290E0FC018081882F90E07A
:100370008095909583709927039739F483E090E0F6
:100380009093100180930F0139C080E290E0FC014E
:100390008081882F90E080959095837099270197B0
:1003A00039F484E090E09093100180930F0126C00F
:1003B00082E090E09093100180930F011FC080E2D3
:1003C00090E0FC018081882F90E08095909583706B
:1003D0009927039739F483E090E09093100180937C
:1003E0000F010CC082E090E09093100180930F0108
:1003F00005C01092100110920F01000080910F01B2
:1004000090911001CC01A0E0B0E040E050E027E086
:1004100030E0841B950B28173907C0F1825B9F4F92
:10042000FC010C94740287E080930E0180910E0110
:100430000E94A00038C087E080930E0180910E01D9
:100440000E94A00030C080910E018F3F49F1809141
:100450000E018F5F80930E0180910E010E94A0001B
:100460001FC080910E018823E9F080910E01815018
:1004700080930E0180910E010E94A00013C0109283
:100480000E0180910E010E94A0000DC087E08093B4
:100490000E0180910E010E94A00005C0000003C063
:1004A000000001C000000000DF91CF910895CF93BC
:1004B000DF93CDB7DEB781E290E0FC01108282E2EB
:1004C00090E02FEFFC01208387E290E02FEFFC010A
:1004D000208388E290E0FC011082109210011092BB
:1004E0000F010E94E900FDCFEE0FFF1F0024001C4A
:0E04F0000BBE0790F691E02D0994F894FFCF13
:0E04FE00000000020000000077000000000077
:00000001FF
