:100000000C9462000C9481000C9481000C9481008B
:100010000C9481000C9481000C9481000C9481005C
:100020000C9481000C9481000C9481000C9481004C
:100030000C9481000C94FA000C9481000C948100C3
:100040000C9481000C9481000C9481000C9481002C
:100050000C9481000C9481000C9481000C9481001C
:100060000C9481000C9481000C9481000C9481000C
:100070000C9481000C9481000C9481000C948100FC
:100080000C9481000C9481000C94810037043C0492
:1000900041047A045E0496049B04B704BE04E004A1
:1000A000E004E004C504CF04140519051E053B0552
:1000B00057057305780594059B05C205C205C20561
:1000C000A205AD0511241FBECFEFD0E4DEBFCDBF2A
:1000D00011E0A0E0B1E0E6E1F5E100E00BBF02C015
:1000E00007900D92AC31B107D9F721E0ACE1B1E056
:1000F00001C01D92A935B207E1F70E94EE060C94EB
:10010000890A0C940000CF93DF9300D01F92CDB7E3
:10011000DEB789837B836A8389818A3031F48A815F
:100120009B81BC018DE00E94830080EC90E0FC018B
:100130008081882F90E080729927892BB1F386EC1B
:1001400090E02981FC01208380E090E00F900F90E7
:100150000F90DF91CF910895CF93DF93CDB7DEB7A6
:1001600081E890E02BE0FC01208388E890E02DE717
:1001700030E0FC01318320838FE690E022E0FC0137
:10018000208384E890E0FC011182108280910E01AE
:1001900090910F01A0911001B091110180931D0168
:1001A00090931E01A0931F01B09320018FE590E072
:1001B0002FE530E0F90120812068FC012083000058
:1001C000DF91CF910895CF93DF93CDB7DEB781E86C
:1001D00090E0FC0110820000DF91CF910895CF9351
:1001E000DF93CDB7DEB781E080931C010000DF9183
:1001F000CF9108951F920F9200905F000F921124EB
:1002000000905B000F922F933F934F935F936F93F8
:100210007F938F939F93AF93BF93EF93FF93CF936E
:10022000DF93CDB7DEB780911D0190911E01A091A3
:100230001F01B09120010197A109B10980931D010F
:1002400090931E01A0931F01B093200180911D0186
:1002500090911E01A0911F01B0912001892B8A2B42
:100260008B2B91F40E94EF0080910E0190910F0171
:10027000A0911001B091110180931D0190931E0176
:10028000A0931F01B09320010000DF91CF91FF9157
:10029000EF91BF91AF919F918F917F916F915F91FE
:1002A0004F913F912F910F9000925B000F90009221
:1002B0005F000F901F901895CF93DF9300D000D070
:1002C000CDB7DEB769837A838B839C8389819A81DA
:1002D000AB81BC8180930E0190930F01A09310011C
:1002E000B093110180910E0190910F01A091100126
:1002F000B091110180931D0190931E01A0931F01E5
:10030000B093200100000F900F900F900F90DF919D
:10031000CF910895CF93DF9300D01F92CDB7DEB772
:1003200089836A834B838B81882371F08A81282F8C
:1003300030E081E090E002C0880F991F2A95E2F733
:10034000982F8981892B0EC08A81282F30E081E087
:1003500090E002C0880F991F2A95E2F7982F909598
:10036000898189230F900F900F90DF91CF9108958D
:10037000CF93DF9300D0CDB7DEB789836A838A81BC
:10038000282F30E081E090E002C0880F991F2A9565
:10039000E2F7982F898189230F900F90DF91CF91F9
:1003A00008950F931F93CF93DF93CDB7DEB708E285
:1003B00010E040E064E08FEF0E948A01F801808342
:1003C000000086E290E0FC018081809560E00E9460
:1003D000B801882311F081E3D3C086E290E0FC01EC
:1003E0008081809561E00E94B801882311F084E348
:1003F000C7C086E290E0FC018081809562E00E94A7
:10040000B801882311F087E3BBC086E290E0FC01CD
:100410008081809563E00E94B801882311F08AE210
:10042000AFC008E210E040E065E08FEF0E948A0173
:10043000F8018083000086E290E0FC0180818095D5
:1004400060E00E94B801882311F082E399C086E23F
:1004500090E0FC018081809561E00E94B8018823D2
:1004600011F085E38DC086E290E0FC0180818095EB
:1004700062E00E94B801882311F088E381C086E21F
:1004800090E0FC018081809563E00E94B8018823A0
:1004900011F080E375C008E210E040E066E08FEF05
:1004A0000E948A01F8018083000086E290E0FC014E
:1004B0008081809560E00E94B801882311F083E379
:1004C0005FC086E290E0FC018081809561E00E943F
:1004D000B801882311F086E353C086E290E0FC0166
:1004E0008081809562E00E94B801882311F089E341
:1004F00047C086E290E0FC018081809563E00E9425
:10050000B801882311F083E23BC008E210E040E02C
:1005100067E08FEF0E948A01F8018083000086E285
:1005200090E0FC018081809560E00E94B801882302
:1005300011F081E425C086E290E0FC018081809585
:1005400061E00E94B801882311F082E419C086E2BC
:1005500090E0FC018081809562E00E94B8018823D0
:1005600011F083E40DC086E290E0FC01808180956B
:1005700063E00E94B801882311F084E401C080E0A8
:10058000DF91CF911F910F9108950F931F93CF93F8
:10059000DF9300D000D0CDB7DEB769837A838B8339
:1005A0009C838091280190912901A0912A01B0910A
:1005B0002B019C01AD0169817A818B819C810E9414
:1005C000F508882309F477C020E030E0A9016981AB
:1005D0007A818B819C810E94F508882351F481E9FE
:1005E00090E021E930E0F90120812870FC012083AE
:1005F00009C081E990E021E930E0F9012081236020
:10060000FC01208328E539E344E75FE369817A81CF
:100610008B819C810E94F508882344F488E990E04E
:100620002FEF3FEFFC013183208334C020E034E220
:1006300044EF56E469817A818B819C810E94170A7C
:10064000181634F488E990E0FC011182108222C06F
:1006500008E910E020E030E040E053E469817A816D
:100660008B819C810E941C0ADC01CB019C01AD01A5
:1006700060E074E284EF9AE40E94FA08DC01CB01A6
:10068000BC01CD010E946C09DC01CB010197F8018E
:100690009183808384E990E0FC011182108289813A
:1006A0009A81AB81BC818093280190932901A0930A
:1006B0002A01B0932B0100000F900F900F900F9024
:1006C000DF91CF911F910F910895CF93DF93CDB715
:1006D000DEB780E990E020E4FC01208381E990E02E
:1006E0002BE0FC01208360E070E0CB010E94C5029A
:1006F0000000DF91CF910895CF93DF93CDB7DEB7A0
:1007000080E990E0FC01108281E990E0FC01108218
:100710000000DF91CF910895CF93DF93CDB7DEB77F
:100720002C970FB6F894DEBF0FBECDBF6D837E83CE
:100730008F83988729873A874B875C878D819E8135
:10074000AF81B88529853A854B855C85BC01CD0193
:100750000E94CA08DC01CB0189839A83AB83BC83E6
:1007600089819A81AB81BC81892B8A2B8B2B29F4BF
:1007700089859A85AB85BC8511C089859A85AB85AD
:10078000BC858D839E83AF83B88789819A81AB8135
:10079000BC8189879A87AB87BC87D0CFBC01CD014C
:1007A0002C960FB6F894DEBF0FBECDBFDF91CF9170
:1007B0000895CF93DF93CDB7DEB78AE790E02AE7BD
:1007C00030E0F9012081206EFC0120830000DF91E0
:1007D000CF910895CF93DF931F92CDB7DEB7898372
:1007E0008CE790E02981283028F02CE730E0F901EF
:1007F000208101C02981FC01208310922C0106C0B8
:10080000000080912C018F5F80932C0180912C013E
:100810008F30B0F300000F90DF91CF910895CF9308
:10082000DF9300D0CDB7DEB79A83898380E00E9442
:10083000EA0388E790E0FC01808191819093240194
:100840008093230189819A81092E000CAA0BBB0B8E
:1008500040E050E026E030E0841B950B2817390774
:1008600008F46EC08A5B9F4FFC010C94EC0881E099
:1008700090E09A83898367C082E090E09A838983BD
:1008800062C080912301909124018032924028F02F
:1008900084E090E09A83898356C0809123019091EF
:1008A00024018F31924028F483E090E09A83898379
:1008B0004AC082E090E09A83898345C080912701F5
:1008C000282F30E0809125019091260128173907C3
:1008D00038F01092270186E090E09A83898333C034
:1008E000809127018F5F8093270184E090E09A83B5
:1008F000898329C080912701282F30E0809125012C
:10090000909126012817390738F01092270185E0C9
:1009100090E09A83898317C0809127018F5F80932D
:10092000270183E090E09A8389830DC082E090E004
:100930009A83898308C082E090E09A83898303C008
:100940001A821982000089819A81092E000CAA0B53
:10095000BB0B40E050E026E030E0841B950B2817ED
:10096000390738F1835B9F4FFC010C94EC0880E859
:10097000809312018EEF8093130127C080E880934B
:1009800012018EEF8093130120C080911201882301
:10099000CCF080911201880F8093120113C08091D6
:1009A0001201823088F080911201869580931201A5
:1009B0000BC080E8809312018EEF8093130105C075
:1009C000000003C0000001C0000089819A810F90DF
:1009D0000F90DF91CF910895CF93DF9300D0CDB7E3
:1009E000DEB79A83898381E00E94EA0388E790E07A
:1009F000FC01808191819093220180932101898162
:100A00009A81092E000CAA0BBB0B40E050E026E0B7
:100A100030E0841B950B2817390708F46EC08C5AF8
:100A20009F4FFC010C94EC0881E090E09A8389834D
:100A300067C082E090E09A83898362C0809121013F
:100A4000909122018033924028F486E090E09A83CE
:100A5000898356C080912101909122018133924077
:100A600028F085E090E09A8389834AC082E090E094
:100A70009A83898345C080912701282F30E0809197
:100A80002501909126012817390738F01092270187
:100A900085E090E09A83898333C0809127018F5F3E
:100AA0008093270183E090E09A83898329C0809115
:100AB0002701282F30E080912501909126012817E9
:100AC000390738F01092270186E090E09A838983F5
:100AD00017C0809127018F5F8093270184E090E009
:100AE0009A8389830DC082E090E09A83898308C04D
:100AF00082E090E09A83898303C01A821982000001
:100B000089819A81092E000CAA0BBB0B40E050E0B2
:100B100026E030E0841B950B2817390760F1855AD1
:100B20009F4FFC010C94EC0880E8809312018EEF3B
:100B3000809313012CC080E8809312018EEF809384
:100B4000130125C0809113018E3FF0F480911301B1
:100B5000869580688093130117C080911301803FB0
:100B6000A8F080911301882F90E0880F991F816071
:100B7000809313010BC080E8809312018EEF809365
:100B8000130105C0000003C0000001C000008981FE
:100B90009A810F900F90DF91CF910895CF93DF93BB
:100BA00000D0CDB7DEB79A83898389819A8181305D
:100BB000910551F08230910561F0892B79F481E043
:100BC00090E09A8389830AC082E090E09A838983C7
:100BD00005C082E090E09A838983000089819A8130
:100BE0008130910579F0029779F488E290E02091C4
:100BF0001201FC0120838BE290E020911301FC01A3
:100C0000208303C0000001C0000089819A810F90F9
:100C10000F90DF91CF910895CF93DF9300D0CDB7A0
:100C2000DEB79A83898389819A818130910551F059
:100C30008230910561F0892B79F481E090E09A830C
:100C400089830DC082E090E09A83898308C082E0A6
:100C500090E09A83898303C01A82198200008981F7
:100C60009A818130910569F08230910589F0892B54
:100C700009F0A6C084E190E09093260180932501BD
:100C8000A6C084E190E090932601809325019FC047
:100C9000809121019091220131E08732924008F445
:100CA00030E0809121019091220121E0813B92402E
:100CB00008F020E0832F82238823B1F48091230160
:100CC0009091240131E08033934008F430E080912A
:100CD00023019091240121E0803A934008F020E024
:100CE000832F8223882339F08AE090E090932601B5
:100CF0008093250165C0809121019091220131E00E
:100D0000813B924008F430E08091210190912201D2
:100D100021E0813E924008F020E0832F8223882347
:100D2000B1F4809123019091240131E08437924005
:100D300008F430E0809123019091240121E0813E6C
:100D4000934008F020E0832F8223882339F085E048
:100D500090E0909326018093250132C0809121017B
:100D60009091220131E0813E924008F430E0809180
:100D700021019091220121E08132934008F020E08E
:100D8000832F82238823B1F4809123019091240141
:100D900031E0813E934008F430E08091230190914E
:100DA000240121E08115944008F020E0832F822364
:100DB000882331F082E090E0909326018093250112
:100DC00084E190E0909326018093250100008981C1
:100DD0009A810F900F90DF91CF9108950F931F93F9
:100DE000CF93DF93CDB7DEB761970FB6F894DEBF30
:100DF0000FBECDBF8AE290E02FEFFC0120838BE293
:100E000090E0FC01108281E290E0FC01108282E21D
:100E100090E02FEFFC01208387E290E02FEFFC01B0
:100E2000208388E290E0FC01108284E290E02FEFC2
:100E3000FC01208385E290E0FC01108288E0E4E17F
:100E4000F1E0DE011A9601900D928A95E1F784E0B7
:100E500090E098878F838A859B85FC0181819281B0
:100E6000A381B48189839A83AB83BC8319868985E6
:100E700080932D0184E190E0A0E0B0E080932E010A
:100E800090932F01A0933001B093310180912E01F6
:100E900090912F01A0913001B091310180933201E6
:100EA00090933301A0933401B09335018CE096E028
:100EB000909337018093360189858093380184E1CE
:100EC00090E0A0E0B0E08093390190933A01A093C4
:100ED0003B01B0933C018091390190913A01A0917E
:100EE0003B01B0913C0180933D0190933E01A09362
:100EF0003F01B09340018CEE94E0909342018093C7
:100F0000410189858093430184E190E0A0E0B0E055
:100F10008093440190934501A0934601B09347010B
:100F20008091440190914501A0914601B091470103
:100F30008093480190934901A0934A01B0934B01DB
:100F40008FE094E090934D0180934C0189858093CC
:100F50004E0184E190E0A0E0B0E080934F019093D7
:100F60005001A0935101B093520180914F01909193
:100F70005001A0915101B09152018093530190937F
:100F80005401A0935501B09356018EEC95E09093D7
:100F900058018093570162E370E080E090E00E9486
:100FA0005C010E94AC000E94D90381E00E94EA0328
:100FB00088E790E0FC0180819181909324018093E7
:100FC000230185E290E02091230130912401FC016E
:100FD00020838BE290E0209123013091240132950F
:100FE00022952F7023273F702327FC0120831E8228
:100FF0001D82C0C08D819E81880F991F9E012F5F29
:101000003F4F820F931F0996FC0180819181FC0163
:1010100025813681478150858D819E81880F991F5A
:10102000BE016F5F7F4F860F971F0996FC0180817D
:101030009181FC0181819281A381B48128173907B4
:101040004A075B0709F045C08D819E81880F991F73
:101050009E012F5F3F4F820F931F0996FC01008175
:1010600011818D819E81880F991F9E012F5F3F4FB7
:10107000820F931F0996FC0180819181FC012185DB
:1010800032858D819E81880F991FAE014F5F5F4F22
:10109000840F951F0996FC0180819181FC0180815C
:1010A000082E000C990BF9010995F80180838D81B8
:1010B0009E81880F991F9E012F5F3F4F820F931FC4
:1010C0000996FC0180819181FC01158216821782AC
:1010D00010868D819E81880F991F9E012F5F3F4F43
:1010E000820F931F0996FC0180819181FC0121816F
:1010F00032814381548189819A81AB81BC81BC0159
:10110000CD010E948C03DC01CB0189839A83AB83E0
:10111000BC838D819E81880F991F9E012F5F3F4F59
:10112000820F931F0996FC01608171818D819E81E0
:10113000880F991F9E012F5F3F4F820F931F0996C3
:10114000FC0180819181FC01258136814781508598
:1011500089819A81AB81BC81820F931FA41FB51F27
:10116000FB0185839683A783B0878D819E8101963D
:101170009E838D832D813E818F8198852817390725
:1011800008F438CF000080911C018823E1F310920D
:101190001C010BCFA1E21A2EAA1BBB1BFD010DC027
:1011A000AA1FBB1FEE1FFF1FA217B307E407F50717
:1011B00020F0A21BB30BE40BF50B661F771F881FF3
:1011C000991F1A9469F760957095809590959B0189
:1011D000AC01BD01CF010895EE0FFF1F0024001CDC
:1011E0000BBE0790F691E02D09940E94A20908F425
:1011F00081E008950E940E090C94DD090E94D60931
:1012000058F00E94CF0940F029F45F3F29F00C9478
:10121000C60951110C94110A0C94CC090E94EE09D4
:1012200068F39923B1F3552391F3951B550BBB2715
:10123000AA2762177307840738F09F5F5F4F220F5A
:10124000331F441FAA1FA9F335D00E2E3AF0E0E851
:1012500032D091505040E695001CCAF72BD0FE2F9B
:1012600029D0660F771F881FBB1F2617370748072F
:10127000AB07B0E809F0BB0B802DBF01FF279358E7
:101280005F4F3AF09E3F510578F00C94C6090C94DC
:10129000110A5F3FE4F3983ED4F3869577956795FE
:1012A000B795F7959F5FC9F7880F911D969587951C
:1012B00097F90895E1E0660F771F881FBB1F62173B
:1012C00073078407BA0720F0621B730B840BBA0BF9
:1012D000EE1F88F7E09508950E9473096894B11194
:1012E0000C94110A08950E94F60988F09F5798F00F
:1012F000B92F9927B751B0F0E1F0660F771F881F1B
:10130000991F1AF0BA95C9F714C0B13091F00E9434
:10131000100AB1E008950C94100A672F782F8827DF
:10132000B85F39F0B93FCCF3869577956795B3955B
:10133000D9F73EF490958095709561957F4F8F4FCA
:101340009F4F0895990F0008550FAA0BE0E8FEEF94
:1013500016161706E807F907C0F012161306E40779
:10136000F50798F0621B730B840B950B39F40A2672
:1013700061F0232B242B252B21F408950A2609F450
:10138000A140A6958FEF811D811D089597F99F6754
:1013900080E870E060E008959FEF80EC08950024FD
:1013A0000A941616170618060906089500240A94CA
:1013B00012161306140605060895092E0394000C50
:1013C00011F4882352F0BB0F40F4BF2B11F460FFDF
:1013D00004C06F5F7F4F8F4F9F4F089557FD905808
:1013E000440F551F59F05F3F71F04795880F97FBE9
:1013F000991F61F09F3F79F08795089512161306A3
:101400001406551FF2CF4695F1DF08C016161706D1
:101410001806991FF1CF8695710561050894089506
:10142000E894BB2766277727CB0197F908950E9498
:10143000A20908F48FEF08950E942F0A0C94DD0989
:101440000E94CF0938F00E94D60920F0952311F0B0
:101450000C94C6090C94CC0911240C94110A0E9416
:10146000EE0970F3959FC1F3950F50E0551F629FF1
:10147000F001729FBB27F00DB11D639FAA27F00DED
:10148000B11DAA1F649F6627B00DA11D661F829F14
:101490002227B00DA11D621F739FB00DA11D621FF9
:1014A000839FA00D611D221F749F3327A00D611D16
:1014B000231F849F600D211D822F762F6A2F1124F8
:1014C0009F5750409AF0F1F088234AF0EE0FFF1F2B
:1014D000BB1F661F771F881F91505040A9F79E3F82
:1014E000510580F00C94C6090C94110A5F3FE4F397
:1014F000983ED4F3869577956795B795F795E795D8
:101500009F5FC1F7FE2B880F911D9695879597F9E0
:061510000895F894FFCFDE
:10151600000000020000000083000000000001003F
:0C152600000080FE2D01380143014E0141
:00000001FF
