:100000000C9446000C9465000C9465000C946500FB
:100010000C9465000C9465000C9465000C946500CC
:100020000C9465000C9465000C9465000C946500BC
:100030000C9465000C94DE000C9465000C94650033
:100040000C9465000C9465000C9465000C9465009C
:100050000C9465000C9465000C9465000C9465008C
:100060000C9465000C9465000C9465000C9465007C
:100070000C9465000C9465000C9465000C9465006C
:100080000C9465000C9465000C94650011241FBE4F
:10009000CFEFD0E4DEBFCDBF11E0A0E0B1E0E6E6F7
:1000A000FBE000E00BBF02C007900D92A233B10746
:1000B000D9F721E0A2E3B1E001C01D92AF33B2074E
:1000C000E1F70E94F3030C94B1050C940000CF9368
:1000D000DF9300D01F92CDB7DEB789837B836A831D
:1000E00089818A3031F48A819B81BC018DE00E9434
:1000F000670080EC90E0FC018081882F90E08072A6
:100100009927892BB1F386EC90E02981FC012083AB
:1001100080E090E00F900F900F90DF91CF910895C5
:10012000CF93DF93CDB7DEB781E890E02BE0FC0101
:10013000208388E890E02DE730E0FC0131832083C4
:100140008FE690E022E0FC01208384E890E0FC014F
:100150001182108280910E0190910F01A0911001E7
:10016000B09111018093330190933401A093350134
:10017000B09336018FE590E02FE530E0F901208162
:100180002068FC0120830000DF91CF910895CF9378
:10019000DF93CDB7DEB781E890E0FC01108200006C
:1001A000DF91CF910895CF93DF93CDB7DEB781E094
:1001B000809332010000DF91CF9108951F920F923A
:1001C00000905F000F92112400905B000F922F931C
:1001D0003F934F935F936F937F938F939F93AF93CF
:1001E000BF93EF93FF93CF93DF93CDB7DEB78091AB
:1001F000330190913401A0913501B09136010197FE
:10020000A109B1098093330190933401A093350182
:10021000B09336018091330190913401A091350162
:10022000B0913601892B8A2B8B2B91F40E94D3003D
:1002300080910E0190910F01A0911001B0911101D8
:100240008093330190933401A0933501B09336012C
:100250000000DF91CF91FF91EF91BF91AF919F91FE
:100260008F917F916F915F914F913F912F910F905F
:1002700000925B000F9000925F000F901F90189506
:10028000CF93DF9300D000D0CDB7DEB769837A83F8
:100290008B839C8389819A81AB81BC8180930E0181
:1002A00090930F01A0931001B093110180910E0162
:1002B00090910F01A0911001B09111018093330131
:1002C00090933401A0933501B093360100000F9054
:1002D0000F900F900F90DF91CF9108950F931F9380
:1002E000CF93DF9300D000D0CDB7DEB769837A8398
:1002F0008B839C838091390190913A01A0913B01BD
:10030000B0913C019C01AD0169817A818B819C8116
:100310000E941D04882309F477C020E030E0A90181
:1003200069817A818B819C810E941D04882351F40C
:1003300081E990E021E930E0F90120812870FC0199
:10034000208309C081E990E021E930E0F9012081B2
:100350002360FC01208328E539E344E75FE36981FA
:100360007A818B819C810E941D04882344F488E952
:1003700090E02FEF3FEFFC013183208334C020E079
:1003800034E244EF56E469817A818B819C810E943A
:100390003F05181634F488E990E0FC0111821082C0
:1003A00022C008E910E020E030E040E053E4698139
:1003B0007A818B819C810E944405DC01CB019C01E8
:1003C000AD0160E074E284EF9AE40E942204DC0153
:1003D000CB01BC01CD010E949404DC01CB0101974B
:1003E000F8019183808384E990E0FC0111821082FE
:1003F00089819A81AB81BC818093390190933A01C4
:10040000A0933B01B0933C0100000F900F900F9020
:100410000F90DF91CF911F910F910895CF93DF93AC
:10042000CDB7DEB780E990E020E4FC01208381E9CC
:1004300090E02BE0FC01208360E070E0CB010E94A3
:100440006E010000DF91CF910895CF93DF93CDB778
:10045000DEB780E990E0FC01108281E990E0FC01C8
:1004600010820000DF91CF910895CF93DF93CDB735
:10047000DEB780913D0190913E018130910581F080
:100480008130910530F08230910511F1039791F19F
:1004900049C081E090E090933E0180933D0147C0C8
:1004A00080E290E0FC018081882F90E081709927A4
:1004B000892B39F482E090E090933E0180933D01D6
:1004C00036C081E090E090933E0180933D012FC0C3
:1004D00080913701843638F083E090E090933E01BC
:1004E00080933D0124C082E090E090933E01809390
:1004F0003D011DC080E290E0FC018081882F90E0EA
:1005000081709927892B39F483E090E090933E0124
:1005100080933D010CC081E090E090933E01809378
:100520003D0105C010923E0110923D0100008091F6
:100530003D0190913E018130910559F08130910546
:1005400008F44CC18230910561F0039709F440C171
:1005500046C160E070E0CB010E946E01109237014D
:100560003EC180913701853068F4809112019091ED
:100570001301A0911401B0911501BC01CD010E949D
:100580006E0120C1809137018A3068F480911A0190
:1005900090911B01A0911C01B0911D01BC01CD01E6
:1005A0000E946E010FC1809137018D3068F48091F7
:1005B000220190912301A0912401B0912501BC0159
:1005C000CD010E946E01FEC080913701843168F434
:1005D0008091160190911701A0911801B091190115
:1005E000BC01CD010E946E01EDC0809137018731C1
:1005F00068F480911E0190911F01A0912001B0919B
:100600002101BC01CD010E946E01DCC08091370147
:10061000883168F48091260190912701A0912801EA
:10062000B0912901BC01CD010E946E01CBC0809127
:1006300037018B3168F48091320190913301A091A0
:100640003401B0913501BC01CD010E946E01BAC0E8
:10065000809137018D3168F480912A0190912B01AE
:10066000A0912C01B0912D01BC01CD010E946E0121
:10067000A9C0809137018E3168F480912E0190914C
:100680002F01A0913001B0913101BC01CD010E9438
:100690006E0198C080913701833268F480911A010D
:1006A00090911B01A0911C01B0911D01BC01CD01D5
:1006B0000E946E0187C080913701883268F4809172
:1006C000160190911701A0911801B0911901BC0178
:1006D000CD010E946E0176C0809137018D3268F4A1
:1006E0008091320190913301A0913401B091350194
:1006F000BC01CD010E946E0165C08091370181333C
:1007000068F480912E0190912F01A0913001B09159
:100710003101BC01CD010E946E0154C080913701AE
:10072000843368F480911E0190911F01A0912001F3
:10073000B0912101BC01CD010E946E0143C08091A6
:1007400037018F3368F48091220190912301A091A9
:100750002401B0912501BC01CD010E946E0132C07F
:10076000809137018C3468F480911A0190911B01BB
:10077000A0911C01B0911D01BC01CD010E946E0130
:1007800021C080913701853568F4809112019091E4
:100790001301A0911401B0911501BC01CD010E947B
:1007A0006E0110C0809137018F3560F48091160181
:1007B00090911701A0911801B0911901BC01CD01D0
:1007C0000E946E01809137018F5F8093370107C0CF
:1007D00060E070E0CB010E946E0101C000000000EB
:1007E000DF91CF910895CF93DF93CDB7DEB781E24C
:1007F00090E0FC01108282E290E02FEFFC01208368
:1008000084E290E02FEFFC01208385E290E0FC0180
:10081000108262E370E080E090E00E9440010E945C
:1008200090000E940E020E94350200008091320169
:100830008823E1F310923201F6CF0E94CA0408F433
:1008400081E008950E9436040C9405050E94FE0480
:1008500058F00E94F70440F029F45F3F29F00C940F
:10086000EE0451110C9439050C94F4040E94160501
:1008700068F39923B1F3552391F3951B550BBB27CF
:10088000AA2762177307840738F09F5F5F4F220F14
:10089000331F441FAA1FA9F335D00E2E3AF0E0E80B
:1008A00032D091505040E695001CCAF72BD0FE2F55
:1008B00029D0660F771F881FBB1F261737074807E9
:1008C000AB07B0E809F0BB0B802DBF01FF279358A1
:1008D0005F4F3AF09E3F510578F00C94EE040C9473
:1008E00039055F3FE4F3983ED4F386957795679595
:1008F000B795F7959F5FC9F7880F911D96958795D6
:1009000097F90895E1E0660F771F881FBB1F6217F4
:1009100073078407BA0720F0621B730B840BBA0BB2
:10092000EE1F88F7E09508950E949B046894B1112A
:100930000C94390508950E941E0588F09F5798F081
:10094000B92F9927B751B0F0E1F0660F771F881FD4
:10095000991F1AF0BA95C9F714C0B13091F00E94EE
:100960003805B1E008950C943805672F782F882753
:10097000B85F39F0B93FCCF3869577956795B39515
:10098000D9F73EF490958095709561957F4F8F4F84
:100990009F4F0895990F0008550FAA0BE0E8FEEF4E
:1009A00016161706E807F907C0F012161306E40733
:1009B000F50798F0621B730B840B950B39F40A262C
:1009C00061F0232B242B252B21F408950A2609F40A
:1009D000A140A6958FEF811D811D089597F99F670E
:1009E00080E870E060E008959FEF80EC08950024B7
:1009F0000A941616170618060906089500240A9484
:100A000012161306140605060895092E0394000C09
:100A100011F4882352F0BB0F40F4BF2B11F460FF98
:100A200004C06F5F7F4F8F4F9F4F089557FD9058C1
:100A3000440F551F59F05F3F71F04795880F97FBA2
:100A4000991F61F09F3F79F087950895121613065C
:100A50001406551FF2CF4695F1DF08C0161617068B
:100A60001806991FF1CF86957105610508940895C0
:100A7000E894BB2766277727CB0197F908950E9452
:100A8000CA0408F48FEF08950E9457050C940505D9
:100A90000E94F70438F00E94FE0420F0952311F024
:100AA0000C94EE040C94F40411240C9439050E9467
:100AB000160570F3959FC1F3950F50E0551F629F87
:100AC000F001729FBB27F00DB11D639FAA27F00DA7
:100AD000B11DAA1F649F6627B00DA11D661F829FCE
:100AE0002227B00DA11D621F739FB00DA11D621FB3
:100AF000839FA00D611D221F749F3327A00D611DD0
:100B0000231F849F600D211D822F762F6A2F1124B1
:100B10009F5750409AF0F1F088234AF0EE0FFF1FE4
:100B2000BB1F661F771F881F91505040A9F79E3F3B
:100B3000510580F00C94EE040C9439055F3FE4F30A
:100B4000983ED4F3869577956795B795F795E79591
:100B50009F5FC1F7FE2B880F911D9695879597F99A
:060B60000895F894FFCF98
:100B66000000000200000000670000000000010015
:100B76000000A4D082437BD49243A4D0A443719DA9
:100B8600AE430000C4430000DC43A4F0F64300D0AB
:020B9600024417
:00000001FF
