:100000000C9446000C9465000C9465000C946500FB
:100010000C9465000C9465000C9465000C946500CC
:100020000C9465000C9465000C9465000C946500BC
:100030000C9465000C9465000C9465000C946500AC
:100040000C9465000C9465000C9465000C9465009C
:100050000C9465000C9465000C9465000C9465008C
:100060000C9465000C9465000C9465000C9465007C
:100070000C9465000C9465000C9465000C9465006C
:100080000C9465000C9465000C94650011241FBE4F
:10009000CFEFD0E4DEBFCDBF11E0A0E0B1E0E2E100
:1000A000F6E000E00BBF02C007900D92A031B1074F
:1000B000D9F721E0A0E1B1E001C01D92A231B20761
:1000C000E1F70E94A1000C9407030C940000CF9369
:1000D000DF9300D01F92CDB7DEB789837B836A831D
:1000E00089818A3031F48A819B81BC018DE00E9434
:1000F000670080EC90E0FC018081882F90E08072A6
:100100009927892BB1F386EC90E02981FC012083AB
:1001100080E090E00F900F900F90DF91CF910895C5
:10012000CF93DF93CDB7DEB78AE790E02AE730E0E0
:10013000F9012081206EFC0120830000DF91CF9126
:100140000895CF92DF92EF92FF92CF93DF9300D08A
:100150001F92CDB7DEB781E290E0FC01108282E20F
:1001600090E02FEFFC01208384E290E02FEFFC0170
:10017000208385E290E0FC01108287E290E02FEF7F
:10018000FC01208388E290E0FC0110828AE290E08A
:100190002FEFFC0120838BE290E0FC0110820E9493
:1001A000900088E790E0FC0180819181909311019B
:1001B00080931001809110019091110189838091A9
:1001C0000E0190910F019695879596958795969536
:1001D00087959B838A838981882F90E0092E000C64
:1001E000AA0BBB0BBC01CD010E94EA016B017C0193
:1001F0008A819B81CC01A0E0B0E0BC01CD010E94CE
:10020000E801DC01CB0120E030E040E650E4BC0135
:10021000CD010E944902DC01CB019C01AD01C70167
:10022000B6010E94E301181634F085E290E021E067
:10023000FC012083B6CF8981882F90E0092E000C25
:10024000AA0BBB0BBC01CD010E94EA016B017C0132
:100250008A819B81CC01A0E0B0E0BC01CD010E946D
:10026000E801DC01CB0120E030E040E750E4BC01D4
:10027000CD010E944902DC01CB019C01AD01C70107
:10028000B6010E94E301181634F085E290E023E005
:10029000FC01208386CF8981882F90E0092E000CF5
:1002A000AA0BBB0BBC01CD010E94EA016B017C01D2
:1002B0008A819B81CC01A0E0B0E0BC01CD010E940D
:1002C000E801DC01CB012AE939E949E750E4BC0146
:1002D000CD010E944902DC01CB019C01AD01C701A7
:1002E000B6010E94E301181634F085E290E027E0A1
:1002F000FC01208356CF8981282F30E08A819B81A1
:10030000880F991F880F991F8217930730F085E295
:1003100090E02FE0FC01208344CF8981482F50E0FA
:100320002A813B81C901880F991F880F991F820F6D
:10033000931F8417950730F085E290E02FE1FC01D0
:1003400020832FCF8981482F50E02A813B81C9012A
:10035000880F991F820F931F880F991F8417950785
:1003600030F085E290E02FE3FC0120831ACF8981F1
:10037000482F50E02A813B81C901880F991F880FBF
:10038000991F880F991F821B930B8417950730F0D4
:1003900085E290E02FE7FC01208303CF8981282F9D
:1003A00030E08A819B81880F991F880F991F880FE1
:1003B000991F8217930708F4F4CE85E290E02FEF9F
:1003C000FC012083EECE0E94250208F481E008950E
:1003D000E89409C097FB3EF49095809570956195DF
:1003E0007F4F8F4F9F4F9923A9F0F92F96E9BB2795
:1003F0009395F695879577956795B795F111F8CF11
:10040000FAF4BB0F11F460FF1BC06F5F7F4F8F4F7B
:100410009F4F16C0882311F096E911C0772321F071
:100420009EE8872F762F05C0662371F096E8862F09
:1004300070E060E02AF09A95660F771F881FDAF760
:10044000880F9695879597F90895990F0008550F8D
:10045000AA0BE0E8FEEF16161706E807F907C0F04A
:1004600012161306E407F50798F0621B730B840B52
:10047000950B39F40A2661F0232B242B252B21F42C
:1004800008950A2609F4A140A6958FEF811D811DCC
:1004900008950E945C020C94CD020E94BF0238F0C5
:1004A0000E94C60220F0952311F00C94B6020C9421
:1004B000BC0211240C9401030E94DE0270F3959F8C
:1004C000C1F3950F50E0551F629FF001729FBB274B
:1004D000F00DB11D639FAA27F00DB11DAA1F649FE7
:1004E0006627B00DA11D661F829F2227B00DA11D9A
:1004F000621F739FB00DA11D621F839FA00D611D20
:10050000221F749F3327A00D611D231F849F600D40
:10051000211D822F762F6A2F11249F5750409AF069
:10052000F1F088234AF0EE0FFF1FBB1F661F771FF5
:10053000881F91505040A9F79E3F510580F00C94C0
:10054000B6020C9401035F3FE4F3983ED4F3869522
:1005500077956795B795F795E7959F5FC1F7FE2B60
:10056000880F911D9695879597F9089597F99F673C
:1005700080E870E060E008959FEF80EC089500242B
:100580000A941616170618060906089500240A94F8
:1005900012161306140605060895092E0394000C7E
:1005A00011F4882352F0BB0F40F4BF2B11F460FF0D
:1005B00004C06F5F7F4F8F4F9F4F089557FD905836
:1005C000440F551F59F05F3F71F04795880F97FB17
:1005D000991F61F09F3F79F08795089512161306D1
:1005E0001406551FF2CF4695F1DF08C01616170600
:1005F0001806991FF1CF8695710561050894089535
:10060000E894BB2766277727CB0197F90895F894DC
:02061000FFCF1A
:100612000000000200000000670000000000FF0070
:00000001FF
