:100000000C9446000C9465000C9465000C946500FB
:100010000C9465000C9465000C9465000C946500CC
:100020000C9465000C9465000C9465000C946500BC
:100030000C9465000C94DE000C9465000C94650033
:100040000C9465000C9465000C9465000C9465009C
:100050000C9465000C9465000C9465000C9465008C
:100060000C9465000C9465000C9465000C9465007C
:100070000C9465000C9465000C9465000C9465006C
:100080000C9465000C9465000C94650011241FBE4F
:10009000CFEFD0E4DEBFCDBF11E0A0E0B1E0E6EEEF
:1000A000F7E000E00BBF02C007900D92A231B1074C
:1000B000D9F721E0A2E1B1E001C01D92A432B2075C
:1000C000E1F70E9463030C94F1030C940000CF93BA
:1000D000DF9300D01F92CDB7DEB789837B836A831D
:1000E00089818A3031F48A819B81BC018DE00E9434
:1000F000670080EC90E0FC018081882F90E08072A6
:100100009927892BB1F386EC90E02981FC012083AB
:1001100080E090E00F900F900F90DF91CF910895C5
:10012000CF93DF93CDB7DEB781E890E02BE0FC0101
:10013000208388E890E02DE730E0FC0131832083C4
:100140008FE690E022E0FC01208384E890E0FC014F
:100150001182108280910E0190910F01A0911001E7
:10016000B09111018093130190931401A093150194
:10017000B09316018FE590E02FE530E0F901208182
:100180002068FC0120830000DF91CF910895CF9378
:10019000DF93CDB7DEB781E890E0FC01108200006C
:1001A000DF91CF910895CF93DF93CDB7DEB781E094
:1001B000809312010000DF91CF9108951F920F925A
:1001C00000905F000F92112400905B000F922F931C
:1001D0003F934F935F936F937F938F939F93AF93CF
:1001E000BF93EF93FF93CF93DF93CDB7DEB78091AB
:1001F000130190911401A0911501B091160101977E
:10020000A109B1098093130190931401A0931501E2
:10021000B09316018091130190911401A0911501E2
:10022000B0911601892B8A2B8B2B91F40E94D3005D
:1002300080910E0190910F01A0911001B0911101D8
:100240008093130190931401A0931501B0931601AC
:100250000000DF91CF91FF91EF91BF91AF919F91FE
:100260008F917F916F915F914F913F912F910F905F
:1002700000925B000F9000925F000F901F90189506
:10028000CF93DF9300D000D0CDB7DEB769837A83F8
:100290008B839C8389819A81AB81BC8180930E0181
:1002A00090930F01A0931001B093110180910E0162
:1002B00090910F01A0911001B09111018093130151
:1002C00090931401A0931501B093160100000F90B4
:1002D0000F900F900F90DF91CF910895CF93DF9300
:1002E000CDB7DEB780911C0190911D018130910541
:1002F00081F08130910530F08230910589F00397CB
:10030000B1F01CC081E090E090931D0180931C012E
:100310001AC082E090E090931D0180931C0113C0ED
:1003200083E090E090931D0180931C010CC081E05C
:1003300090E090931D0180931C0105C010921D0157
:1003400010921C01000080911C0190911D018130D0
:10035000910549F08130910590F08230910539F096
:10036000039749F00DC081E08093170109C082E036
:100370008093170105C084E08093170101C000003D
:100380000000DF91CF910895CF93DF93CDB7DEB713
:1003900080911E0190911F018130910569F081309B
:1003A000910518F0029779F015C081E090E09093E4
:1003B0001F0180931E0113C082E090E090931F0103
:1003C00080931E010CC081E090E090931F01809308
:1003D0001E0105C010921F0110921E0100008091A5
:1003E0001E0190911F018130910531F081309105FE
:1003F00050F0029721F008C01092180105C081E06A
:100400008093180101C000000000DF91CF91089592
:10041000CF93DF93CDB7DEB7809122019091230176
:100420008230910509F45BC08330910528F4009770
:1004300079F00197A1F095C08430910509F469C065
:100440008430910508F46CC0059709F470C089C028
:1004500081E090E0909323018093220187C080E2A5
:1004600090E0FC018081882F90E0809590958770C6
:100470009927049739F482E090E0909323018093C8
:10048000220174C080E290E0FC018081882F90E01E
:100490008095909587709927019739F483E090E0D3
:1004A000909323018093220161C080E290E0FC01DF
:1004B0008081882F90E0809590958770992702978A
:1004C00039F484E090E090932301809322014EC0A0
:1004D00081E090E0909323018093220147C080E265
:1004E00090E0FC018081882F90E080959095877046
:1004F0009927892B39F481E090E090932301809330
:10050000220134C082E090E0909323018093220185
:100510002DC085E090E0909323018093220126C0B6
:1005200085E090E090932301809322011FC080E238
:1005300090E0FC018081882F90E0809590958770F5
:100540009927892B39F481E090E0909323018093DF
:1005500022010CC085E090E090932301809322015A
:1005600005C0109223011092220100008091220107
:100570009091230182309105A1F08330910530F4F0
:10058000009709F44BC0019739F04DC083309105B5
:1005900089F10497C9F147C01092190110921A010C
:1005A00042C080911A01282F30E080911B01882FD2
:1005B00090E001968217930724F081E0809319015F
:1005C00013C080911A01282F30E080911B01882FE1
:1005D00090E00196880F991F821793071CF01092E4
:1005E000190102C010921A0180911A018F5F809345
:1005F0001A0119C080911B01882391F080911B0181
:10060000815080931B010CC080911B01883050F4F5
:1006100080911B018F5F80931B0104C0000003C009
:10062000000001C000000000DF91CF910895CF933A
:10063000DF93CDB7DEB78091200190912101009723
:1006400019F0019741F00EC081E090E090932101F4
:10065000809320010CC081E090E090932101809371
:10066000200105C01092210110922001000080910C
:10067000200190912101009709F1019709F01FC015
:1006800085E290E020911901222F30E022953295E9
:10069000307F3227207F3227422F20911801222FCE
:1006A00030E0220F331F220F331F220F331F242B62
:1006B00030911701232BFC01208301C000000000B2
:1006C000DF91CF910895CF93DF93CDB7DEB72C970D
:1006D0000FB6F894DEBF0FBECDBF81E290E0FC0103
:1006E000108282E290E02FEFFC01208384E290E010
:1006F0002FEFFC01208385E290E0FC01108219823B
:100700001A821B821C821D821E821F82188681E033
:1007100090E0A0E0B0E089879A87AB87BC8761E072
:1007200070E080E090E00E9440010E9490001092F2
:100730001D0110921C0110921F0110921E011092B7
:10074000210110922001109223011092220189812F
:100750009A81AB81BC818C329140A105B10530F00A
:100760000E946E0119821A821B821C828D819E81D9
:10077000AF81B885883E9340A105B10530F00E9455
:10078000C4011D821E821F8218860E9408020E94D8
:1007900017030000809112018823E1F310921201E7
:1007A00029813A814B815C8189859A85AB85BC859D
:1007B000820F931FA41FB51F89839A83AB83BC83C9
:1007C0002D813E814F81588589859A85AB85BC8571
:1007D000820F931FA41FB51F8D839E83AF83B8879D
:0607E000B6CFF894FFCF34
:1007E6000000000200000000670000000000010099
:0207F600000001
:00000001FF
