:100000000C9456000C9475000C9475000C947500BB
:100010000C9475000C9475000C9475000C9475008C
:100020000C9475000C9475000C9475000C9475007C
:100030000C9475000C94EE000C9475000C947500F3
:100040000C9475000C9475000C9475000C9475005C
:100050000C9475000C9475000C9475000C9475004C
:100060000C9475000C9475000C9475000C9475003C
:100070000C9475000C9475000C9475000C9475002C
:100080000C9475000C9475000C94750031043604C2
:100090004A0485048A04DE04BD04F30445054505CD
:1000A00045051705450545054505290511241FBECC
:1000B000CFEFD0E4DEBFCDBF11E0A0E0B1E0ECEFC8
:1000C000F5E100E00BBF02C007900D92A834B10724
:1000D000D9F721E0A8E4B1E001C01D92A438B2072D
:1000E000E1F70E948B070C94FC0A0C940000CF935C
:1000F000DF9300D01F92CDB7DEB789837B836A83FD
:1001000089818A3031F48A819B81BC018DE00E9413
:10011000770080EC90E0FC018081882F90E0807275
:100120009927892BB1F386EC90E02981FC0120838B
:1001300080E090E00F900F900F90DF91CF910895A5
:10014000CF93DF93CDB7DEB781E890E02BE0FC01E1
:10015000208388E890E02DE730E0FC0131832083A4
:100160008FE690E022E0FC01208384E890E0FC012F
:100170001182108280910E0190910F01A0911001C7
:10018000B09111018093490190934A01A0934B01D2
:10019000B0934C018FE590E02FE530E0F90120812C
:1001A0002068FC0120830000DF91CF910895CF9358
:1001B000DF93CDB7DEB781E890E0FC01108200004C
:1001C000DF91CF910895CF93DF93CDB7DEB781E074
:1001D000809348010000DF91CF9108951F920F9204
:1001E00000905F000F92112400905B000F922F93FC
:1001F0003F934F935F936F937F938F939F93AF93AF
:10020000BF93EF93FF93CF93DF93CDB7DEB780918A
:10021000490190914A01A0914B01B0914C01019785
:10022000A109B1098093490190934A01A0934B0120
:10023000B0934C018091490190914A01A0914B01EA
:10024000B0914C01892B8A2B8B2B91F40E94E300F7
:1002500080910E0190910F01A0911001B0911101B8
:100260008093490190934A01A0934B01B0934C01B4
:100270000000DF91CF91FF91EF91BF91AF919F91DE
:100280008F917F916F915F914F913F912F910F903F
:1002900000925B000F9000925F000F901F901895E6
:1002A000CF93DF9300D000D0CDB7DEB769837A83D8
:1002B0008B839C8389819A81AB81BC8180930E0161
:1002C00090930F01A0931001B093110180910E0142
:1002D00090910F01A0911001B091110180934901FB
:1002E00090934A01A0934B01B0934C0100000F90F2
:1002F0000F900F900F90DF91CF910895CF93DF93E0
:1003000000D01F92CDB7DEB789836A834B838B8180
:10031000882371F08A81282F30E081E090E002C0CC
:10032000880F991F2A95E2F7982F8981892B0EC093
:100330008A81282F30E081E090E002C0880F991F69
:100340002A95E2F7982F9095898189230F900F9035
:100350000F90DF91CF910895CF93DF9300D0CDB769
:10036000DEB789836A838A81282F30E081E090E0BC
:1003700002C0880F991F2A95E2F7982F8981892357
:100380000F900F90DF91CF9108950F931F93CF930C
:10039000DF93CDB7DEB708E210E040E064E08FEF16
:1003A0000E947E01F8018083000086E290E0FC015B
:1003B0008081809560E00E94AC01882311F081E388
:1003C000D3C086E290E0FC018081809561E00E94CC
:1003D000AC01882311F084E3C7C086E290E0FC0101
:1003E0008081809562E00E94AC01882311F087E350
:1003F000BBC086E290E0FC018081809563E00E94B2
:10040000AC01882311F08AE2AFC008E210E040E0BE
:1004100065E08FEF0E947E01F8018083000086E294
:1004200090E0FC018081809560E00E94AC0188230F
:1004300011F082E399C086E290E0FC018081809512
:1004400061E00E94AC01882311F085E38DC086E253
:1004500090E0FC018081809562E00E94AC018823DD
:1004600011F088E381C086E290E0FC0180818095F4
:1004700063E00E94AC01882311F080E375C008E2BC
:1004800010E040E066E08FEF0E947E01F80180837B
:10049000000086E290E0FC018081809560E00E948F
:1004A000AC01882311F083E35FC086E290E0FC0199
:1004B0008081809561E00E94AC01882311F086E381
:1004C00053C086E290E0FC018081809562E00E944A
:1004D000AC01882311F089E347C086E290E0FC017B
:1004E0008081809563E00E94AC01882311F083E253
:1004F0003BC008E210E040E067E08FEF0E947E0121
:10050000F8018083000086E290E0FC018081809504
:1005100060E00E94AC01882311F081E425C086E2EE
:1005200090E0FC018081809561E00E94AC0188230D
:1005300011F082E419C086E290E0FC018081809590
:1005400062E00E94AC01882311F083E40DC086E2D2
:1005500090E0FC018081809563E00E94AC018823DB
:1005600011F084E401C080E0DF91CF911F910F91E1
:1005700008950F931F93CF93DF9300D000D0CDB792
:10058000DEB769837A838B839C8380915401909139
:100590005501A0915601B09157019C01AD016981AF
:1005A0007A818B819C810E946809882309F477C035
:1005B00020E030E0A90169817A818B819C810E94D1
:1005C0006809882351F481E990E021E930E0F901DC
:1005D00020812870FC01208309C081E990E021E995
:1005E00030E0F90120812360FC01208328E539E314
:1005F00044E75FE369817A818B819C810E9468096D
:10060000882344F488E990E02FEF3FEFFC01318329
:10061000208334C020E034E244EF56E469817A81DB
:100620008B819C810E948A0A181634F488E990E034
:10063000FC011182108222C008E910E020E030E0C5
:1006400040E053E469817A818B819C810E948F0A0A
:10065000DC01CB019C01AD0160E074E284EF9AE41F
:100660000E946D09DC01CB01BC01CD010E94DF09B4
:10067000DC01CB010197F8019183808384E990E04C
:10068000FC011182108289819A81AB81BC818093A7
:10069000540190935501A0935601B0935701000067
:1006A0000F900F900F900F90DF91CF911F910F91AE
:1006B0000895CF93DF93CDB7DEB780E990E020E4D3
:1006C000FC01208381E990E02BE0FC01208360E0C5
:1006D00070E0CB010E94B9020000DF91CF91089534
:1006E000CF93DF93CDB7DEB780E990E0FC011082B5
:1006F00081E990E0FC0110820000DF91CF91089524
:10070000CF93DF93CDB7DEB72C970FB6F894DEBF4B
:100710000FBECDBF6D837E838F83988729873A87ED
:100720004B875C878D819E81AF81B88529853A850D
:100730004B855C85BC01CD010E943D09DC01CB01EC
:1007400089839A83AB83BC8389819A81AB81BC8185
:10075000892B8A2B8B2B29F489859A85AB85BC85BF
:1007600011C089859A85AB85BC858D839E83AF83B7
:10077000B88789819A81AB81BC8189879A87AB8749
:10078000BC87D0CFBC01CD012C960FB6F894DEBF4C
:100790000FBECDBFDF91CF910895CF93DF9300D0EF
:1007A000CDB7DEB79A83898389819A81813091059B
:1007B00051F082309105B9F0892BD1F481E090E0BD
:1007C0009A83898315C083E290E0FC0180818823AD
:1007D0002CF082E090E09A8389830AC081E090E067
:1007E0009A83898305C081E090E09A838983000021
:1007F00089819A818130910539F0029739F485E237
:1008000090E0FC01108203C0000001C0000089815B
:100810009A810F900F90DF91CF9108950F931F93BE
:10082000CF93DF9300D000D0CDB7DEB79C838B830E
:100830000E94C501809350018B819C81092E000C80
:10084000AA0BBB0B40E050E027E030E0841B950B87
:100850002817390708F4D7C08A5B9F4FFC010C9416
:100860005F0981E090E09C838B83CDC083E290E0C0
:10087000FC01808188234CF0809150018A3229F458
:1008800082E090E09C838B83BEC081E090E09C83FB
:100890008B83B9C083E290E0FC01808188234CF017
:1008A000809150018A3229F482E090E09C838B830E
:1008B0002BC083E290E0FC01808188236CF480915E
:1008C00050018A3249F080914F01843029F484E04C
:1008D00090E09C838B8318C083E290E0FC018081D0
:1008E00088236CF080914F01853048F4809150014D
:1008F0008A3229F083E090E09C838B8305C081E0FD
:1009000090E09C838B837FC07EC082E090E09C83DC
:100910008B8379C010924F0180915001882371F42C
:1009200080914E01803550F484E090E09C838B836D
:1009300080914E018F5F80934E0165C080914F0181
:10094000882F90E08A5E9E4FFC019081809150013B
:10095000981729F486E090E09C838B8354C08091A3
:100960004E01803528F081E090E09C838B834BC062
:1009700085E090E09C838B8346C080914F0183305B
:1009800029F487E090E09C838B833DC080915001E7
:10099000882351F480914F018F5F80934F0184E051
:1009A00090E09C838B832FC086E090E09C838B83B8
:1009B00080914E018F5F80934E0125C08091500140
:1009C000882339F410924F0184E090E09C838B835C
:1009D0001AC085E090E09C838B8380914E018F5FED
:1009E00080934E0110C080915001882339F481E03A
:1009F00090E09C838B8310924F0104C087E090E0CD
:100A00009C838B8300008B819C81092E000CAA0B98
:100A1000BB0B40E050E027E030E0841B950B28172B
:100A20003907A0F1825B9F4FFC010C945F09809114
:100A30004F01082F10E00E94C501282FC8018A5ECF
:100A40009E4FFC01208380914F018F5F80934F0167
:100A50001DC01A82198211C089819A818A5E9E4FB7
:100A6000FC01208189819A818E5E9E4FFC0120834A
:100A700089819A8101969A83898389819A810597D0
:100A80005CF381E080934D0101C000008B819C816B
:100A90000F900F900F900F90DF91CF911F910F91BA
:100AA0000895CF93DF9300D0CDB7DEB79A838983C3
:100AB0000E94C5018093510190914D0181E08927E9
:100AC000882309F47FC089819A8182309105A1F140
:100AD000833091052CF4009759F0019771F072C0A2
:100AE0008330910509F44EC0049709F45BC06AC0D5
:100AF00081E090E09A83898365C080915201882FBC
:100B000090E0865E9E4FFC01908180915101981784
:100B100029F482E090E09A83898354C08091510146
:100B2000882329F481E090E09A8389834BC083E095
:100B300090E09A83898346C080915201853079F490
:100B400085E290E0FC018081882F90E081709927F8
:100B5000892B29F484E090E09A83898333C08091C3
:100B60005101882351F4809152018F5F809352018B
:100B700081E090E09A83898325C082E090E09A83A7
:100B8000898320C080915101882339F41092520149
:100B900081E090E09A83898315C083E090E09A8396
:100BA000898310C080915101882339F481E090E05D
:100BB0009A8389831092520104C084E090E09A8362
:100BC0008983000080914D01882309F47FC08981C9
:100BD0009A8182309105A1F1833091052CF4009720
:100BE00059F0019771F072C08330910509F44EC03D
:100BF000049709F45BC06AC081E090E09A8389831E
:100C000065C080915201882F90E08E5E9E4FFC015E
:100C1000908180915101981729F482E090E09A83A5
:100C2000898354C080915101882329F481E090E0A8
:100C30009A8389834BC083E090E09A83898346C07E
:100C400080915201833079F485E290E0FC0180814B
:100C5000882F90E081709927892B29F484E090E017
:100C60009A83898333C080915101882351F4809104
:100C700052018F5F8093520181E090E09A838983D3
:100C800025C082E090E09A83898320C08091510141
:100C9000882339F41092520181E090E09A8389838D
:100CA00015C083E090E09A83898310C08091510140
:100CB000882339F481E090E09A838983109252016D
:100CC00004C084E090E09A838983000089819A813E
:100CD00082309105C1F0833091051CF4892B39F0E5
:100CE00015C08330910589F0049739F00FC085E273
:100CF00090E021E0FC01208309C085E290E021E042
:100D0000FC01208303C0000001C0000089819A819A
:100D10000F900F90DF91CF910895CF93DF9300D084
:100D2000CDB7DEB79A83898389819A818130910515
:100D300089F0823091051CF4892B39F039C082305A
:100D40009105C1F0039721F133C081E090E09A83CF
:100D500089832EC080E290E0FC01808188232CF002
:100D600082E090E09A83898323C081E090E09A83B7
:100D700089831EC0809153018F3028F083E090E07A
:100D80009A83898315C082E090E09A83898310C09A
:100D900080E290E0FC01808188232CF083E090E0E9
:100DA0009A83898304C081E090E09A83898300005C
:100DB00089819A818130910559F0823091050CF436
:100DC000A2C08230910561F0039709F496C09CC0DF
:100DD00060E070E0CB010E94B9021092530194C010
:100DE00080915301823068F480912001909121011B
:100DF000A0912201B0912301BC01CD010E94B90252
:100E000076C080915301833068F4809128019091DD
:100E10002901A0912A01B0912B01BC01CD010E94B2
:100E2000B90265C080915301863068F48091300129
:100E300090913101A0913201B0913301BC01CD01FB
:100E40000E94B90254C080915301873068F48091A8
:100E5000240190912501A0912601B0912701BC01A8
:100E6000CD010E94B90243C080915301893068F4DA
:100E700080912C0190912D01A0912E01B0912F0114
:100E8000BC01CD010E94B90232C0809153018C3067
:100E900068F48091340190913501A0913601B091B0
:100EA0003701BC01CD010E94B90221C080915301DC
:100EB0008D3068F48091400190914101A0914201F0
:100EC000B0914301BC01CD010E94B90210C08091D4
:100ED00053018F3060F48091380190913901A091D5
:100EE0003A01B0913B01BC01CD010E94B902809151
:100EF00053018F5F8093530107C060E070E0CB0126
:100F00000E94B90201C0000089819A810F900F9060
:100F1000DF91CF9108950F931F93CF93DF93CDB7B8
:100F2000DEB761970FB6F894DEBF0FBECDBF84E287
:100F300090E02FE7FC01208385E290E0FC01108225
:100F400081E290E0FC01108282E290E02FEFFC0150
:100F5000208387E290E020EFFC01208388E290E08C
:100F60002FE0FC01208388E0E0E4F1E0DE011A9646
:100F700001900D928A95E1F784E090E098878F8345
:100F80008A859B85FC0181819281A381B4818983BB
:100F90009A83AB83BC83198689858093580182E349
:100FA00090E0A0E0B0E08093590190935A01A093A3
:100FB0005B01B0935C018091590190915A01A0911D
:100FC0005B01B0915C0180935D0190935E01A09301
:100FD0005F01B093600181E595E090936201809399
:100FE000610189858093630182E390E0A0E0B0E035
:100FF0008093640190936501A0936601B0936701AB
:101000008091640190916501A0916601B0916701A2
:101010008093680190936901A0936A01B0936B017A
:101020008DEC93E090936D0180936C0189858093A2
:101030006E0188EC90E0A0E0B0E080936F019093A7
:101040007001A0937101B093720180916F01909132
:101050007001A0917101B09172018093730190931E
:101060007401A0937501B09376018DE896E090939A
:1010700078018093770189858093790182E390E0FC
:10108000A0E0B0E080937A0190937B01A0937C0173
:10109000B0937D0180917A0190917B01A0917C01B8
:1010A000B0917D0180937E0190937F01A093800198
:1010B000B09381018EE094E090938301809382014C
:1010C00062E370E080E090E00E9450010E94A00086
:1010D0000E9459031E821D82C0C08D819E81880F8F
:1010E000991F9E012F5F3F4F820F931F0996FC01AE
:1010F00080819181FC0125813681478150858D81D8
:101100009E81880F991FBE016F5F7F4F860F971FCB
:101110000996FC0180819181FC0181819281A381EA
:10112000B481281739074A075B0709F045C08D814C
:101130009E81880F991F9E012F5F3F4F820F931F43
:101140000996FC01008111818D819E81880F991F74
:101150009E012F5F3F4F820F931F0996FC018081F4
:101160009181FC01218532858D819E81880F991F97
:10117000AE014F5F5F4F840F951F0996FC01808180
:101180009181FC018081082E000C990BF9010995D1
:10119000F80180838D819E81880F991F9E012F5FAA
:1011A0003F4F820F931F0996FC0180819181FC01C2
:1011B00015821682178210868D819E81880F991F55
:1011C0009E012F5F3F4F820F931F0996FC01808184
:1011D0009181FC01218132814381548189819A81ED
:1011E000AB81BC81BC01CD010E948003DC01CB013D
:1011F00089839A83AB83BC838D819E81880F991FDD
:101200009E012F5F3F4F820F931F0996FC01608163
:1012100071818D819E81880F991F9E012F5F3F4FA5
:10122000820F931F0996FC0180819181FC01258129
:1012300036814781508589819A81AB81BC81820F3B
:10124000931FA41FB51FFB0185839683A783B087D7
:101250008D819E8101969E838D832D813E818F811C
:1012600098852817390708F438CF00008091480185
:101270008823E1F3109248012DCFA1E21A2EAA1B78
:10128000BB1BFD010DC0AA1FBB1FEE1FFF1FA21736
:10129000B307E407F50720F0A21BB30BE40BF50B33
:1012A000661F771F881F991F1A9469F760957095BC
:1012B000809590959B01AC01BD01CF010895EE0F83
:1012C000FF1F0024001C0BBE0790F691E02D09942F
:1012D0000E94150A08F481E008950E9481090C9487
:1012E000500A0E94490A58F00E94420A40F029F42C
:1012F0005F3F29F00C94390A51110C94840A0C9424
:101300003F0A0E94610A68F39923B1F3552391F3D0
:10131000951B550BBB27AA2762177307840738F064
:101320009F5F5F4F220F331F441FAA1FA9F335D0C1
:101330000E2E3AF0E0E832D091505040E695001C75
:10134000CAF72BD0FE2F29D0660F771F881FBB1F2F
:10135000261737074807AB07B0E809F0BB0B802D0D
:10136000BF01FF2793585F4F3AF09E3F510578F039
:101370000C94390A0C94840A5F3FE4F3983ED4F34A
:10138000869577956795B795F7959F5FC9F7880F0D
:10139000911D9695879597F90895E1E0660F771F5F
:1013A000881FBB1F621773078407BA0720F0621BF0
:1013B000730B840BBA0BEE1F88F7E09508950E941B
:1013C000E6096894B1110C94840A08950E94690A90
:1013D00088F09F5798F0B92F9927B751B0F0E1F0F6
:1013E000660F771F881F991F1AF0BA95C9F714C0A6
:1013F000B13091F00E94830AB1E008950C94830A01
:10140000672F782F8827B85F39F0B93FCCF38695DE
:1014100077956795B395D9F73EF49095809570953B
:1014200061957F4F8F4F9F4F0895990F0008550F7B
:10143000AA0BE0E8FEEF16161706E807F907C0F05A
:1014400012161306E407F50798F0621B730B840B62
:10145000950B39F40A2661F0232B242B252B21F43C
:1014600008950A2609F4A140A6958FEF811D811DDC
:10147000089597F99F6780E870E060E008959FEF16
:1014800080EC089500240A9416161706180609061B
:10149000089500240A9412161306140605060895EA
:1014A000092E0394000C11F4882352F0BB0F40F472
:1014B000BF2B11F460FF04C06F5F7F4F8F4F9F4FB2
:1014C000089557FD9058440F551F59F05F3F71F034
:1014D0004795880F97FB991F61F09F3F79F087959B
:1014E0000895121613061406551FF2CF4695F1DF24
:1014F00008C0161617061806991FF1CF86957105B4
:10150000610508940895E894BB2766277727CB01E7
:1015100097F908950E94150A08F48FEF08950E9424
:10152000A20A0C94500A0E94420A38F00E94490A0A
:1015300020F0952311F00C94390A0C943F0A1124E1
:101540000C94840A0E94610A70F3959FC1F3950F71
:1015500050E0551F629FF001729FBB27F00DB11D37
:10156000639FAA27F00DB11DAA1F649F6627B00DC7
:10157000A11D661F829F2227B00DA11D621F739FB0
:10158000B00DA11D621F839FA00D611D221F749FBE
:101590003327A00D611D231F849F600D211D822F05
:1015A000762F6A2F11249F5750409AF0F1F088232C
:1015B0004AF0EE0FFF1FBB1F661F771F881F915059
:1015C0005040A9F79E3F510580F00C94390A0C94C5
:1015D000840A5F3FE4F3983ED4F386957795679548
:1015E000B795F795E7959F5FC1F7FE2B880F911D83
:0C15F0009695879597F90895F894FFCF21
:1015FC000000000200000000770000000000010065
:10160C0000004E4E4E4E4E4E4E4E2331323334353C
:10161C00A4D082437BD49243A4D0A443719DAE4307
:10162C000000C4430000DC43A4F0F64300D00244A5
:08163C00580163016E01790100
:00000001FF
